:020000040800F2
:10000000B0200020210200086F200008971B000884
:100010006D20000841050008FD24000800000000D4
:10002000000000000000000000000000890100083E
:100030004305000800000000CD010008E52300088A
:100040003B0200083B0200083B0200083B0200089C
:100050003B0200083B0200083B0200083B0200088C
:100060003B0200083B0200083B0200083B0200087C
:100070003B0200083B0200083B0200083B0200086C
:100080003B0200083B0200083B020008E524000890
:10009000F12400083B0200083B0200083B02000874
:1000A0003B0200083B0200083B0200083B0200083C
:1000B0003B0200083B020008612400083B020008E4
:1000C0003B0200083B0200083B0200083B0200081C
:1000D0003B0200083B0200083B0200083B0200080C
:1000E000450500083B0200083B02000800F002F84A
:1000F00000F03AF80AA090E8000C82448344AAF188
:100100000107DA4501D100F02FF8AFF2090EBAE885
:100110000F0013F0010F18BFFB1A43F0010318473B
:10012000384D0000584D0000103A24BF78C878C1FF
:10013000FAD8520724BF30C830C144BF04680C60ED
:10014000704700000023002400250026103A28BF35
:1001500078C1FBD8520728BF30C148BF0B60704739
:100160001FB51FBD10B510BD00F045F91146FFF7D2
:10017000F7FF02F0D5F900F063F903B4FFF7F2FFDF
:1001800003BC00F06BF90000224B19680868B0E866
:10019000F00F80F30988BFF36F8F4FF0000080F3FA
:1001A00011884EF00D0E70470000000006480068F0
:1001B000006880F3088862B661B6BFF34F8FBFF363
:1001C0006F8F00DF00BF00BF08ED00E0EFF3098094
:1001D000BFF36F8F0F4B1A6820E9F00F106008B55E
:1001E0004FF0500080F31188BFF34F8FBFF36F8F34
:1001F00003F048FA4FF0000080F31188BDE8084092
:1002000019680868B0E8F00F80F30988BFF36F8FB2
:10021000704700BF34000020EFF3058070470000F6
:100220000948804709480047FEE7FEE7FEE7FEE78A
:10023000FEE7FEE7FEE7FEE7FEE7FEE704480549C6
:10024000054A064B704700005D240008ED000008D9
:10025000B01A0020B0200020B01C0020B01C0020EC
:10026000032A40F2308010F0030C00F0158011F8E2
:10027000013BBCF1020F624498BF11F801CB00F8BA
:10028000013B38BF11F8013BA2F1040298BF00F80E
:1002900001CB38BF00F8013B11F0030300F0578099
:1002A000083AC0F0088051F8043B083A51F804CBF2
:1002B000A0E80810F5E7121D5CBF51F8043B40F8B8
:1002C000043BAFF30080D20724BF11F8013B11F8C3
:1002D00001CB48BF11F8012B24BF00F8013B00F807
:1002E00001CB48BF00F8012B704702F0FF0343EA3F
:1002F000032242EA024200F05EB84FF0000200B56D
:10030000134694469646203922BFA0E80C50A0E838
:100310000C50B1F12001BFF4F7AF090728BFA0E8E6
:100320000C5048BF0CC05DF804EB890028BF40F8B2
:10033000042B08BF704748BF20F8022B11F0804FF4
:1003400018BF00F8012B704770477047704710B511
:10035000203AC0F00B80B1E81850203AA0E81850BD
:10036000B1E81850A0E81850BFF4F5AF5FEA027C7E
:1003700024BFB1E81850A0E8185044BF18C918C0ED
:10038000BDE810405FEA827C24BF51F8043B40F88E
:10039000043B08BF7047D20728BF31F8023B48BF73
:1003A00011F8012B28BF20F8023B48BF00F8012BB1
:1003B00070474FF000020429C0F0128010F0030CC7
:1003C0003FF49DAFCCF1040CBCF1020F18BF00F854
:1003D000012BA8BF20F8022BA1EB0C01FFF78FBF68
:1003E0005FEAC17C24BF00F8012B00F8012B48BF55
:1003F00000F8012B7047754600F02CF8AE4605005A
:100400006946534620F00700854618B020B5FFF72F
:1004100015FFBDE820404FF000064FF000074FF0F9
:1004200000084FF0000B21F00701AC46ACE8C00912
:10043000ACE8C009ACE8C009ACE8C0098D4670471B
:1004400010B50446AFF300802046BDE81040FFF72A
:1004500094BE0000004870474C1A00200149182043
:10046000ABBEFEE7260002007047000008B50B4C4B
:1004700040F201154FF4FA66207860B10021217036
:100480008DF8001001226946284601F027FF30460A
:1004900002F094F8F0E70121F1E7000008000020E5
:1004A0001FB513A10025D1E900018DE82300124CEE
:1004B0004FF0FF3801264FF4FA6703954146A069D3
:1004C00002F036F90028F9D16670082269465020FA
:1004D00001F004FFC82002F071F8384602F06EF80F
:1004E0006570082202A9502001F0F8FEE6E700003E
:1004F000FFFFFFFFFFFFFFFF0800002008B50F4CC4
:100500004FF48277F02540F201264FF4FA786088A4
:10051000401C80B26080B84200D9658060880222A9
:10052000010A8DF800108DF801006946304601F08F
:10053000D5FE404602F042F8E9E70000080000203E
:10054000FEE770474FF4805000F0A8BB72B6FEE79C
:1005500090F82020012A07D0022A05D0416A41F4F0
:100560008021416201207047006842690A4342616C
:1005700000207047F0B590F820500468A468012D61
:1005800005D0022D03D0416A41F480214DE014F0E2
:10059000406F01D1E50045D5C4F301640125A540B4
:1005A0001D608D684FF4C0739DB1CE6835434E68B1
:1005B00045EAC605066803EB0417F5514FF4C2750A
:1005C000076805EB04150E697E51097D012905D0E8
:1005D00009E00E88CD6845EA4655EBE701684E59BB
:1005E00046F480764E511179D2F805504FF4C67614
:1005F00041EA0521056806EB0416A9511178D2F8E5
:1006000001204FF4C47541EA0221026805EB04158C
:100610005151006803EB0411425842F0010242506C
:100620000020F0BD416A41F4001141620120F0BD9B
:1006300010B590F820300268012B07D0022B05D0AE
:10064000416A41F480214162012010BDD2F80002CC
:1006500040F00100C2F80002087D00F01F030120F5
:100660009840D2F81C328343C2F81C32CB69B3B92C
:10067000D2F80C328343C2F80C328C894B6864F395
:100680001F434C6902EBC404C4F840320C890B6868
:1006900064F31F434C6902EBC404C4F84432CB69D1
:1006A000012B16D1D2F80C320343C2F80C320C885D
:1006B0004B6864F31F434C6902EBC404C4F8403236
:1006C0000C89CB6864F31F434C6902EBC404C4F883
:1006D00044328B69002BD2F804320FD053EA000366
:1006E000C2F804320B69002BD2F8143208D003434D
:1006F000C2F81432096A012904D008E08343EFE705
:100700008343F5E7D2F81C120143C2F81C12D2F859
:10071000000220F00100C2F80002002010BD704766
:1007200070B590F82040012C05D0022C03D0416A0E
:1007300041F4802128E0046809B32469A40720D08B
:100740004FF4D874056804EB01142D5915F0040515
:10075000956005682D591AD0ED08556005682C592B
:1007600004F00204D4604FF4DA74056804EB011459
:100770002E5906F00F06082E0CD308250DE0E4686C
:10078000DCE7416A41F400114162012070BD6D0D4A
:100790001560E3E72D5905F00F05156105682D5922
:1007A000C5F30725956105682C59240C54614FF455
:1007B000DC72046802EB0112A4581C700468A4588F
:1007C000240A5C700468A458240C9C700468A25825
:1007D000120EDA704FF4DE72046802EB0112A458B4
:1007E0001C710468A458240A5C710468A458240C81
:1007F0009C710468A258120EDA71006829B101696F
:1008000041F020010161002070BDC16841F020016C
:10081000C160F8E70246002092F82010012901D0BB
:1008200002290CD111688A68520100D501208A681A
:10083000120100D5401C8968C90000D5401C7047D2
:100840002DE9F05F0546006800244669D0F8049061
:100850008768D0F80CB0D0F810A0D0F81880F10755
:1008600048D0F90714D001218160B80703D5284684
:1008700000F003FA0CE0780702D54FF4006407E0BB
:10088000380702D54FF4805402E0284600F0F4F90E
:10089000F80516D529684FF480708860B80503D52F
:1008A000284600F0ECF90CE0780502D544F4005439
:1008B00007E0380502D544F4804402E0284600F001
:1008C000DDF9F80316D529684FF480308860B80345
:1008D00003D5284600F0D5F90CE0780302D544F49E
:1008E000004407E0380302D544F4803402E028468F
:1008F00000F0C6F9300707D55FEACB6004D5296858
:10090000102044F40074C86070074FF0080707D542
:100910005FEA0B7004D52868C760284600F062F9CA
:10092000B00706D52868C068800702D0284600F0C6
:100930005BF9700607D55FEACA6004D52968102004
:1009400044F480640861B00607D55FEA0A7004D5F4
:1009500028680761284600F05FF9F00606D5286888
:100960000069800702D0284600F057F9B00308D587
:100970005FEAC96005D5296810204860284600F064
:100980004DF9F00307D55FEA097004D52868476080
:10099000284600F077F9300446D55FEA497040D523
:1009A000F00504D55FEAC87001D044F00104B00539
:1009B00004D55FEA887001D544F00204700504D5BF
:1009C0005FEA487001D544F00404300529D518F0D9
:1009D000700F26D008F07000402815D006DC1028D3
:1009E00009D020280AD0302816D10AE050280ED08D
:1009F000602811D10EE044F008040DE044F010042A
:100A00000AE044F0200407E044F0400404E044F02D
:100A1000800401E044F480742868816921F0700149
:100A20008161296804204860002C05D0686A204351
:100A300068622846FFF773FEBDE8F09F70B50400BA
:100A400003D094F8200010B104E0012070BD2046CE
:100A500000F082F82068016841F00101016000F0B7
:100A600021FA0546052604E000F01CFA401B0A287E
:100A700011D820684068C007F6D02068016821F0CE
:100A80000201016000F00EFA05460BE000F00AFAE0
:100A9000401B0A2806D9606A40F40030606284F87E
:100AA0002060D2E7206840688007EFD4207E0128CC
:100AB000206801683DD021F080010160607E01283E
:100AC0002068016838D021F040010160A07E012833
:100AD0002068016833D021F020010160E07E012808
:100AE000206801682ED041F010010160207F0128AC
:100AF0002068016829D021F008010160607F012889
:100B00002068016824D021F004010160D4E90201C9
:100B10000843D4E90412114308436168491E08439D
:100B20002168C86100206062012084F82000002054
:100B300070BD41F08001C0E741F04001C5E741F0E0
:100B40002001CAE721F01001CFE741F00801D4E706
:100B500041F00401D9E7000010B586B000210091F2
:100B600001910291039100681B49884232D11B48D0
:100B7000C16941F00071C161C16901F00071049166
:100B8000816941F0040181618069154C00F0040025
:100B900004904FF4006000906946204600F08AF807
:100BA000A014009002200190032003906946204683
:100BB00000F080F800220521132000F03BFC1320F8
:100BC00000F02AFC00220521142000F033FC142040
:100BD00000F022FC06B010BD00640040001002408E
:100BE000000801407047000000B589B007AB6A46B5
:100BF0000021FFF795FD002809D10098A0F580613C
:100C0000013904D14FF40051024800F043F909B012
:100C100000BD0000001001407047704770470000A1
:100C200070B5044690F82000012804D0606A40F4B2
:100C30000020606218E0022084F82000206801682B
:100C400021F00101016000F02DF905460EE000BF22
:100C500000F028F9401B0A2808D9606A40F40030E7
:100C60006062052084F82000012070BD2068406883
:100C7000C007EDD1606270BD704770477047704724
:100C80007047704770470000B0F5805F03D102489D
:100C9000006801F0C7BD704720000020044910B56E
:100CA0000A68024202D00860FFF7EEFF10BD0000A4
:100CB000140401402DE9F84FDFF8B8910024A9F1A0
:100CC000040B23460F2709F1040AABF1040EC9E017
:100CD0000125A5402A40AA427DD1674ED1F804C023
:100CE000ACEB0608B44532D014DCBCF1030F3AD0AB
:100CF00009DCBCF1000F2AD0BCF1010F1CD0BCF103
:100D0000020F31D11DE0BCF1110F17D0BCF1120F51
:100D10002AD119E0B8F5881F19D006DCB8F5803F54
:100D200015D0B8F5801F1FD111E0B8F5001F0ED007
:100D3000B8F5041F18D10AE0CB6815E0CB681B1D7D
:100D400012E0CB6808330FE0CB680C330CE08B6803
:100D50002BB1012B4FF0080303D0456104E00423BD
:100D600002E0056100E00023FF2A01D8064601E009
:100D700000F104064FEA840501D9A5F12005D6F853
:100D8000008007FA05FC28EA0C0803FA05F548EA92
:100D90000508C6F800804D68ED0062D5374DAE6994
:100DA00046F00106AE61AD6924F0030605F00105C9
:100DB0000095334D06EB050CDCF80850A607360FFE
:100DC00007FA06F825EA0805DFF8B880404503D1A0
:100DD0004FF0000817E044E0DFF8AC80404502D156
:100DE0004FF001080FE0DFF8A480404502D14FF03A
:100DF000020808E0DFF89880404502D14FF0030870
:100E000001E04FF0040808FA06F848EA0508CCF8B3
:100E100008804D68D9F80060ED024D4601D51643B3
:100E200000E096432E604D68DAF80060AD0255464A
:100E300001D5164300E096432E604D68DBF8006054
:100E4000AD035D4601D5164300E096432E604D6824
:100E5000DEF80060ED03754601D5164300E09643C9
:100E60002E60641C0D682A46E5407FF431AFBDE872
:100E7000F88F00000804014000001110001002402B
:100E80000000014000080140000C0140001001403A
:100E900000140140C26821EA02030A4043EA024109
:100EA00001617047014880687047000024000020FD
:100EB00070B5040025D094F83D00002520B984F8D1
:100EC0003C50204600F0E6F9242084F83D002068DC
:100ED000016821F0010101602068016841F40041CE
:100EE00001602068016821F40041016000F08AFB84
:100EF0004D4A6168914201D84C4900E04C49884212
:100F000001D2012070BD4B492368B0FBF1F15E684E
:100F100026F03F060E435E606368934206D94FF4A5
:100F2000967359434FF47A73B1FBF3F12368491C6C
:100F30001E6A26F03F06314319626168914210D85B
:100F40004900401EB0FBF1F2521CC2F30B02042A0E
:100F500001D2042022E0B0FBF1F0401CC0F30B00F2
:100F60001CE0A268F2B301EBC10303EB0116431EC0
:100F7000B3FBF6F35B1C43F480431B0549D092B3EB
:100F800001EBC10202EB0111401EB0FBF1F0401C6D
:100F9000C0F30B0040F4804040F400402168CA696F
:100FA0004CF6FF739A431043C861D4E9071001431C
:100FB0002068026822F0C00211430160D4E90301F5
:100FC00001432068826848F2FF339A4311438160ED
:100FD000D4E9050108432168CA6822F0FF021043E2
:100FE000C86001E00EE016E02068016841F00101F0
:100FF00001602564202084F83D00256384F83E507C
:10100000002070BD01EB4106431EB3FBF6F35B1CF1
:10101000B3E70120C2E701EB4101401EB0FBF1F054
:10102000401CC0F30B00B7E7A086010080841E00BF
:1010300000093D0040420F002DE9F84F1F46904641
:101040008A460446DDF82890FFF72CFF054694F801
:101050003D0020287FD119230122404920460095D8
:1010600000F080FE002876D194F83C00012872D070
:10107000012084F83C0020680168C90703D1016899
:1010800041F0010101602068016821F40061016004
:10109000212084F83D00102084F83E0000262664BC
:1010A000C4F824806785608D20852D48E0622B463A
:1010B0004A465146204600F087FD90B920684169B4
:1010C0008069009036E02A464946204600F0F0FE4E
:1010D00050B1206C042804D12068016841F40071EB
:1010E00001600120BDE8F88F606A2168007808611E
:1010F000606A401C6062618D491E6185218D491EB8
:1011000089B2218522685369DB435B070BD451B157
:1011100000781061606A401C6062608D401E6085CE
:10112000208D401E20852A464946204600F0EEFDCF
:101130000028CED1208D0028C5D154F83D0B016880
:1011400041F400710160202004F81E09E6776677FB
:101150000020C7E7FFE70220C4E7000002001000FC
:101160000000FFFF2DE9FF4F83B09A46DDE911979C
:1011700093460446DDF84080FFF794FE054694F858
:101180003D0020287FD119230122404920460095A7
:1011900000F0E8FD002876D194F83C00012872D0D8
:1011A000012084F83C0020680168C90703D1016868
:1011B00041F0010101602068016821F400610160D3
:1011C000212084F83D00402084F83E00002626645B
:1011D000C4F82480A4F82A90608D20852C48E06211
:1011E000CDE9007553465A462046049900F03AFD71
:1011F00070B930E02A463946204600F059FE58B111
:10120000206C042804D12068016841F40071016059
:10121000012007B0BDE8F08F606A2168007808619E
:10122000606A401C6062218D491E89B22185628DF1
:10123000521E628522685369DB435B070BD469B198
:1012400000781061606A401C6062208D401E20851D
:10125000608D401E6085208D0028CBD12A463946FE
:10126000204600F053FD0028CAD154F83D0B016818
:1012700041F400710160202004F81E09E6776677CA
:101280000020C6E7FFE70220C3E7000002001000CD
:101290000000FFFF10B586B000210091019102917E
:1012A000039100681349884222D1134CA06940F091
:1012B0000800A061A069694600F0080004904FF49E
:1012C0004070009012200190032003900B48FFF71C
:1012D000F1FC0B48416841F0E06141F002014160DE
:1012E000E06940F40010E061E06900F4001004904F
:1012F00006B010BD0054004000100240000C014038
:101300000000014002488168027811448160704702
:1013100024000020074810B5016841F01001016069
:10132000032000F0A7F80F2000F006F800F050F8B6
:10133000002010BD0020024030B505461F4887B090
:10134000C16941F00401C161C06906A900F004004F
:10135000009001A800F036F90498B0B100F052F9FD
:1013600040001749174AB0FBF1F11748491E0260C7
:10137000416040F2E7320021C0E9032181608161D0
:1013800000F008FB040003D015E000F03BF9E8E7AB
:101390000D4800F02DFB04000DD11E2000F03CF89C
:1013A000102D07D2002229461E2000F043F80748DE
:1013B000056000E0012407B0204630BD0010024067
:1013C00040420F00000800403001002028000020AB
:1013D0000F4808B5816941F001018161816901F01F
:1013E00001010091C16941F08051C161C0690022D1
:1013F00000F0805000900F21901E00F01BF805486F
:10140000416821F0E06141F00071416008BD0000D9
:101410000010024000000140002809DB00F01F021C
:10142000012191404009800000F1E020C0F8001146
:1014300070470000F0B40E4B1B680C46C3F3022348
:10144000C3F10705042D00D90425191D072901D270
:10145000002300E0DB1E012606FA05F1491E2140AB
:1014600099409E40761E16403143F0BC01F047B8CB
:101470000CED00E0064900F0070208684FF6FF0394
:10148000184040EA0220034A1043086070470000F9
:101490000CED00E00000FA052DE9F0470F460500CD
:1014A00061D0434E306800F00700B84209D230687E
:1014B00020F0070038433060306800F00700B84281
:1014C00051D128683B4C810712D5400703D560688D
:1014D00040F4E06060602878000703D5606840F45D
:1014E000605060606068A96820F0F00008436060A8
:1014F0002878C00728D06868012810D02168022801
:1015000010D0890700292EDA616821F00301014318
:101510006160FFF7C7FC804641F288390DE0216821
:101520008903EFE78901EDE7FFF7BCFCA0EB0801B9
:10153000494502D90320BDE8F0876068696800F07A
:101540000C00B0EB810FEFD1306800F00700B8421B
:101550000BD9306820F0070038433060306800F065
:101560000700B84201D00120E5E72878400705D5FB
:101570006068E96820F4E06008436060287800074C
:1015800006D56068296920F4605040EAC1006060B7
:1015900000F048F86168084AC1F30311515CC84083
:1015A0000649086006480068FFF7C6FE0020C2E74B
:1015B0000020024000100240F24D000830000020E0
:1015C000280000200F2202600C4A536803F0030336
:1015D0004360536803F0F0038360536803F4E063EF
:1015E000C36052684FF4E06303EAD2020261044828
:1015F000006800F00700086070470000001002401B
:10160000002002400448054900684968044AC1F3C3
:101610000221515CC8407047300000200010024099
:10162000024E00080E4A51680E4801F00C03042BCC
:1016300011D0082B0FD10C48C1F38343C903C05C00
:101640000AD55168084AC1F34041921E515C054ACF
:101650005043B0FBF1F07047044948437047000025
:101660000010024000127A00E24D000800093D001F
:101670002DE9F84F040070D02078C04DC00749D044
:101680006868C0F38100012807D06868C0F3810052
:10169000022809D16868C00306D52868800339D5B7
:1016A00060680028E7D035E06068B0F5803F0BD077
:1016B00010B1B0F5A02F11D0286820F48030286038
:1016C000286820F4802002E0286840F480302860F8
:1016D000606890B1FFF7E6FB06460AE0286840F430
:1016E00080202860F0E700BFFFF7DCFB801B642848
:1016F00073D828688003F7D50CE0FFF7D3FB0646C4
:1017000005E000BFFFF7CEFB801B6428F0D82868F7
:101710008003F7D420789A4E80074FF001094FF0EC
:10172000000839D5686810F00C0F07D06868C0F35E
:101730008100022809D16868C00306D428688007A0
:1017400014D52069012808D110E02069B0B1C6F88D
:101750000090FFF7A7FB074605E00AE1FFF7A2FBB1
:10176000C01B0228C4D828688007F7D5286861699B
:1017700020F0F80040EAC10028600DE0C6F80080C3
:10178000FFF790FB074604E0FFF78CFBC01B022825
:1017900023D828688007F7D4207800072CD579480B
:1017A000A169D9B1C0F80090FFF77CFB074604E0BF
:1017B000FFF778FBC01B02280FD8686A8007F7D5AF
:1017C00071484FF4FA510068B0FBF1F0009000BF8F
:1017D0000098411E0091FAD20EE080E0C0F800802F
:1017E000FFF760FB074604E0FFF75CFBC01B022825
:1017F00075D8686A8007F7D42078400760D5E86913
:101800000027C00008D4E86940F08050E861E8692A
:10181000012700F0805000905C480168C90513D48E
:101820000168834641F480710160FFF73BFB82460B
:1018300006E000BFFFF736FBA0EB0A0064284ED895
:10184000DBF80000C005F5D5E06801280AD008B132
:10185000052813D0286A20F001002862286A20F0A9
:10186000040002E0286A40F001002862E06841F2CA
:10187000883B98B1FFF716FB82460BE0286A40F0E0
:1018800004002862EEE700BFFFF70CFBA0EB0A01A3
:1018900059455AD8286A8007F6D50CE0FFF702FBB5
:1018A000824605E0FFF7FEFAA0EB0A0159454CD845
:1018B000286A8007F6D41FB1E86920F08050E861FB
:1018C000E06988B36968C1F38101022944D0022824
:1018D000C6F8608004D0FFF7E5FA044638E034E04B
:1018E000FFF7E0FA074604E0FFF7DCFAC01B022826
:1018F0002BD828688001F7D4206AB0F5803F05D145
:101900006868A16820F4003008436860D4E90801E1
:101910000843696821F4741108436860C6F8609050
:10192000FFF7C0FA044606E025E000BFFFF7BAFA69
:10193000001B022809D828688001F7D51BE000BFEA
:10194000FFF7B0FA001B022802D90320BDE8F88F88
:1019500028688001F4D40EE00128F7D06868226A74
:1019600000F48031914204D1616A00F47010884221
:1019700001D00120EAE70020E8E700000010024063
:1019800000004242800442423000002000700040CB
:101990007047704710B5040003D094F83D0010B1B3
:1019A00007E0012010BD002084F83C00204600F034
:1019B0001EF8022084F83D00211D206800F056FD2D
:1019C000012084F8460084F83E0084F83F0084F843
:1019D000400084F8410084F8420084F8430084F811
:1019E000440084F8450084F83D00002010BD704795
:1019F00090F83D10012901D001207047022180F8A4
:101A00003D100168CA6842F00102CA6000680B49D3
:101A1000884208D0B0F1804F05D00949884202D0F1
:101A20000849884204D1816801F00701062903D0E2
:101A3000016841F00101016000207047002C014065
:101A4000000400400008004070472DE9F0410446C2
:101A50000068C66805694FF00007A90713D5B107EC
:101A600011D5F91E01610120207720688069800767
:101A7000204602D0FFF7E8FF04E000F07EF82046A1
:101A800000F07CF82777680716D5700714D5216811
:101A90006FF004000861022020772068806910F44C
:101AA000407F204602D0FFF7CFFF04E000F065F84A
:101AB000204600F063F82777280715D5300713D59F
:101AC00021686FF008000861042020772068C06951
:101AD0008007204602D0FFF7B7FF04E000F04DF882
:101AE000204600F04BF82777E80616D5F00614D507
:101AF00021686FF010000861082020772068C06915
:101B000010F4407F204602D0FFF79EFF04E000F073
:101B100034F8204600F032F82777E80708D0F007BD
:101B200006D021686FF001000861204600F028F817
:101B3000280608D5300606D521686FF080000861B8
:101B40002046FFF725FF680608D5700606D52168F0
:101B50006FF040000861204600F01CF8A8060AD586
:101B6000B00608D521686FF0200008612046BDE866
:101B7000F041FFF70EBFBDE8F081704770470000ED
:101B800000680349884201D1FFF7BCBB70470000E1
:101B9000000800407047FEE701684A69D2435205D9
:101BA0000FD46FF480624A61002140F8301F202278
:101BB00042738173026942F00402026101730120E1
:101BC0007047002070470000F8B50446C06A1E4602
:101BD0000D461746082807D0012805D010F5803F8C
:101BE00002D0206B122804D12068016841F4807172
:101BF0000160134600224FF001112046009600F0CC
:101C0000B1F840B120680068C00502D54FF40070FB
:101C100020640320F8BD2069B0F5804F0ED0062067
:101C2000216800EAD51040F0F000086133463A46DA
:101C30000B49204600F0DEF878B902E005F0FE001E
:101C400000E0E8B221680861054933463A46891F39
:101C5000204600F0CFF80028DCD00120F8BD0000BD
:101C6000080001002DE9F843044600680D46DDE94F
:101C7000089701689846164641F4807101604B460A
:101C800000224FF001112046009700F06BF848B198
:101C900020680068C00502D54FF40070206403205E
:101CA000BDE8F883216805F0FE0008613B464A461E
:101CB0001549204600F09EF888B92068416980697E
:101CC00000903A464946204600F0F2F848B1206CB0
:101CD000042804D12068016841F4007101600120EA
:101CE000DEE7F5B2B8F1010F09D02168300A0861CA
:101CF0003A464946204600F0DBF80028E7D1206844
:101D000005610020CCE700000200010070B5164616
:101D10000D4604461EE02046FFF73EFF08B10120B5
:101D200070BD681C16D0FFF7BDF8801BA84200D814
:101D300085B920684069C04340070BD5002044F8AE
:101D4000300F20216173A073216941F020012161CE
:101D50002073E4E720684069C0434007DBD40020DB
:101D600070BD00002DE9F047984617460D46044621
:101D7000C1F30746DDF820902AE000BFB8F1FF3F2D
:101D800026D0FFF78FF8A0EB0901414502D8B8F142
:101D9000000F1DD12068012E16D0806925EA0000B1
:101DA0000004000C12D00020B84211D1002044F8E9
:101DB000300F20216173A073216941F0200121615E
:101DC00020730120BDE8F0874069E7E70120EBE7D9
:101DD0002068012E0AD0806925EA00000004000C6A
:101DE00006D00020B842C9D00020EBE74069F3E7F5
:101DF0000120F7E72DE9F047984616460D460446C0
:101E00004FF000094FF0200AC1F3074723E0206894
:101E10004069C043400515D42068016841F4007151
:101E2000016021686FF480604861C4F8309084F8E4
:101E30003DA084F83E90216C41F00401216484F8B7
:101E40003C9021E0701C06D0FFF72CF8A0EB0800B6
:101E5000B04203D816B1012F1FD021E02068012F16
:101E600015D0806925EA00000004000C18D000BFDE
:101E700044F8309F84F80DA084F80E90216941F059
:101E80002001216184F80C900120BDE8F0874069B1
:101E900025EA00000004000CEAD12068406901E056
:101EA0002068806925EA00000004000CAFD1ECE74F
:101EB00070B516460D4604461EE02046FFF76CFE40
:101EC00008B1012070BD681C16D0FEF7EBFF801B27
:101ED000A84200D885B920684069C04300060BD5E8
:101EE000002044F8300F20216173A073216941F074
:101EF000200121612073E4E720684069C0430006A7
:101F0000DBD4002070BD0000104810B50E49016000
:101F10000421416000214FF460228160C0E9031276
:101F20004FF4801242610176012242768176C276B8
:101F300001774177FEF782FD002803D0BDE810400D
:101F4000FEF704BB10BD000000640040B400002098
:101F500010B5144800F097FB134C124A0021606141
:101F60001032012000F012FC0E4AA061903A0021CC
:101F70000E4800F083FC0B4A60606C3A00210C486C
:101F800000F07CFC074AA060483A0021094800F0B4
:101F900075FC044AE060243A0021074800F06EFC1A
:101FA000206110BDC04D0008080000203923000842
:101FB0006D040008FD040008A104000800B585B008
:101FC000002003901648816941F0200181618169F8
:101FD00001F020010491816941F00801816181696A
:101FE00001F008010491816941F004018161806977
:101FF000694600F0040004904FF4805000900948B6
:102000000190022002900848FEF754FE00220521AC
:102010002820FFF70FFA2820FFF7FEF905B000BDD2
:102020000010024000001110000C01400D4810B5D6
:102030000B4901600C49416000214FF480428160EE
:10204000C0E9031241618161C1610162FEF730FFA5
:10205000002803D0BDE81040FEF778BA10BD00009C
:1020600000540040DC000020A0860100FEE7FEE7EF
:1020700010B5A0B0002480216846FEF73EF900218B
:10208000204600F0E7F88021684600F017F9641C4C
:10209000E4B2082CF3D320B010BD000010B5022428
:1020A000202000F0F7F8204600F0F4F81F480470F4
:1020B0003F24A82000F0EEF8204600F0EBF80024C2
:1020C000D32000F0E7F8204600F0E4F8402000F0CC
:1020D000E1F8A12000F0DEF8C82000F0DBF80021D4
:1020E000084600F0A1F87F24812000F0D3F82046B4
:1020F00000F0D0F8A42000F0CDF8A62000F0CAF837
:10210000D52000F0C7F8802000F0C4F88D2000F042
:10211000C1F8142000F0BEF80021012000F084F87E
:10212000BDE81040AF2000F0B5B80000000000206E
:10213000F0B589B00024074620466D4604AE002A5B
:1021400008DA4FF02D038DF800304FF00104C2F192
:10215000000214E006D14FF030008DF800004FF07F
:1021600001041AE04FF00A0C92FBFCF30CFB132362
:1021700092FBFCF203F13003335400F10100002A1A
:10218000F0D108E006EB0002A0F1010012F8012CEA
:102190002A5504F101040028F4D14FF0000028551D
:1021A0002A46384600F003F809B02046F0BD2DE974
:1021B000F04117460E46044600250BE03146204606
:1021C00000F00EF8641CE4B20F2C02D90024B61CF7
:1021D000F6B26D1C7A5D002AF0D12846BDE8F08188
:1021E00070B51646C206150E0C46072918D80F28DA
:1021F00016D82946204600F02DF80A48082100EBA1
:102200000610064600F05AF8641CE0B2294600F0B9
:1022100021F806F10800BDE87040082100F04EB832
:1022200070BD00003045000870B50C46050001D0B7
:10223000012D0ED10CB1012C0BD1DA2000F02AF8BF
:10224000280100EB4410BDE87040801CC0B200F0D3
:1022500021B870BD70B50E4D0C462978022905D104
:10226000072803D8B030C0B200F014F8287802284C
:102270000CD17F2C0AD804F00F0000F00BF81020CE
:1022800000EB1410BDE8704000F004B870BD000011
:10229000000000201CB500218DF804108DF8050009
:1022A0004FF4FA7000900448022301AA7821406894
:1022B000FEF7C2FE1CBD0000000000200EB54FF46A
:1022C000FA728DE807000448012340227821406813
:1022D000FEF748FF0EBD00000000002070B588B07A
:1022E000134D0090002001900290CDE903020E46AC
:1022F0000A21686900F09EF900280AD100240AE04A
:10230000012000F05BF9641C322C04D9686900F0EC
:10231000EEF908B070BD0748FEF77CFA0028EFD050
:1023200006AB324669460348FEF724F9EEE70000A3
:1023300008000020B4000020FFF7B0FEFFF798FE71
:10234000002117A20846FFF732FF17A20221002042
:10235000FFF72DFF16A204210020FFF728FF164CDF
:102360002078C8B115A200210620FFF720FF62885F
:1023700002210620FFF7DCFE12A202210A20FFF74D
:1023800016FF607850B111A204210620FFF70FFF5D
:10239000642000F013F9E3E70EA2E4E70FA2F3E7ED
:1023A000446F6F72203A000054504D53203A0000A1
:1023B0004661756C743A0000080000204F70656E2D
:1023C000656420006B506120000000004552524FB0
:1023D00052000000436C6F73656420004F4B202057
:1023E0002000000010B54FF0E020006901F0AEFEC3
:1023F000012803D0BDE8104001F0CAB910BD30B5C6
:102400008FB028216846FDF778FF14210AA8FDF750
:1024100074FF01210804CDE9001000240294022574
:102420000491CDE907504FF4E01009906846FFF79A
:102430001FF908B172B6FEE70F20CDE90A054FF487
:102440008060CDE90C4002210AA80E94FFF724F821
:10245000002801D072B6FEE70FB030BD7047000013
:102460000148FFF7F2BA000030010020F0B5026821
:10247000194B1A4C1A4D4FF08047984205D0B8427C
:1024800003D0A04201D0A84203D122F070064A68CE
:102490003243984205D0B84203D0A04201D0A842AE
:1024A00003D122F44074CA6822434C6922F08002AE
:1024B000224302608A68C2620A688262984201D13D
:1024C00009690163012141610169C90703D00169FB
:1024D00021F001010161F0BD002C01400004004029
:1024E000000800400148FEF7ABB90000B40000202E
:1024F0000148FEF7A5B90000B4000020FEE7090777
:10250000090E002804DB00F1E02080F80014704779
:1025100000F00F0000F1E02080F8141D704700006B
:1025200090B0FEF7F7FEFFF76AFFFFF747FDFFF7F2
:102530007DFDFFF7E9FC1E48816941F010018161D2
:102540008069012500F010000E904FF40050CDE995
:102550000A0500240220CDE90C400AA91548FEF71F
:10256000A9FB03940E200494CDE90850CDE906455B
:10257000059400940194029469460F48FEF758F8B8
:1025800008B172B6FEE70C48FEF74AFB08B172B616
:10259000FEE702210848FDF7DBFF08B172B6FEE74F
:1025A00000F01AF8FFF7D4FC00F028F8FEE700006E
:1025B0000010024000100140B400002010B5EFF3FD
:1025C000058111B16FF0050403E0002408B100F0AB
:1025D0005DFF204610BD0000EFF3058010B16FF0E5
:1025E000050070470448016811B14FF0FF30704793
:1025F00001210160002070478400002010B5EFF336
:10260000058010B16FF0050010BD08480168012970
:1026100002D04FF0FF3010BD054A002182F8141D92
:102620000221016000F0E2FF002010BD84000020C4
:102630000BE000E02DE9F0410D46014621F00100DC
:1026400001F001014FF00004EFF305820AB1A41F6D
:1026500016E048B100296FF001066FF00207294625
:1026600008D001F0BBFC07E06FF0030408E035B1CF
:10267000344605E001F0F6FB0128F8D100E03C46C5
:102680002046BDE8F08170B505464FF00004EFF339
:10269000058050BB0DB1686800E00020C10701D083
:1026A000012600E0002600071FD46DB1D5E9021015
:1026B00021B1502819D31EB1042002E020B114E04A
:1026C000012001F0C3F805E00EB1042000E0012074
:1026D00001F0B1F8040008D00DB1296800E0002134
:1026E00000F072FE0EB144F00104204670BD70B5DA
:1026F000014621F0010001F001014FF00004EFF369
:1027000005820AB1A41F11E028B16FF0020529B1BA
:1027100001F09FFA07E06FF0030407E000231A4678
:10272000194601F039F9012800D02C46204670BD29
:10273000F8B50D460024211F4E1C002804D000BF10
:10274000EFF30582A2B10DB10C461BE000216A46F1
:10275000009101F039FB012813D1009890B10A498A
:102760004FF080500860BFF34F8FBFF36F8F09E0C9
:10277000294601F077FB012804D015B16FF0010460
:1027800000E034462046F8BD04ED00E0F8B51446FC
:1027900003460E464FF00005EFF3058098BB93B358
:1027A0009E423DD84CB1A0680028E06803D0502874
:1027B00036D3012002E008B132E00020012B05D021
:1027C00010B31846A26801F016F820E040B10320CB
:1027D0000090002211460120A36801F065F804E092
:1027E00003220021012001F03EF8050018D086B137
:1027F00000231A46194601F0CFF8012809D02846CF
:1028000000F0F6FD00250BE0184600F0D7FF0500AC
:1028100006D00CB1216800E00021284600F0D4FD6C
:102820002846F8BD38B50024E51E00280BD000BFAF
:10283000EFF30581A9B100210091694601F0BBF9D0
:10284000012815D102E06FF0030412E0009880B176
:1028500009494FF080500860BFF34F8FBFF36F8F6F
:1028600007E000231A46194601F096F8012800D027
:102870002C46204638BD000004ED00E02DE9FF4164
:102880004FEA01034FF00005EFF30581039549BBC3
:1028900040B38027182100244AB3166806B1344695
:1028A00096691EB13146761E382E02D21679F60789
:1028B00003D0002004B0BDE8F081566906B1B70826
:1028C000D2F808C0BCF1000F0DD0D5685C2D18D32C
:1028D00012693AB136B18DE806103A46214601F048
:1028E00004FC03900DE0D6685EB912694AB903AAE8
:1028F000CDE90012BAB2214601F0CAFB012800D08E
:1029000003950398D6E700002DE9F041134C0F46DC
:102910000546E6682068001D00F058FC681C07D1D9
:1029200037B12168BDE8F0410D48091D00F09EBC9B
:1029300020683544B5424560216805D2A06BBDE8EA
:10294000F041091D00F07ABC606B091D00F076FCB7
:10295000A06A854200D2A562BDE8F0813400002063
:10296000680600202DE9F041054600F08BFC2D4C57
:10297000A068401CA06020682B4F10B1606930B384
:102980002BE02560A068012827D1002606EB8600F1
:1029900007EB800000F044FC761C382EF6D3234869
:1029A00000F03EFC2148143000F03AFC1F4828306B
:1029B00000F036FC1D483C3000F032FC1B48503023
:1029C00000F02EFC194860631430A06305E0206815
:1029D000E96AC06A884200D82560606A401C60626B
:1029E0006864E86A2169884200D9206100EB8000B0
:1029F00007EB8000291D00F039FC00F063FC6069E2
:102A000000280CD02068E96AC06A884207D20849C9
:102A10004FF080500860BFF34F8FBFF36F8FBDE85A
:102A2000F081000034000020B801002018060020CA
:102A300004ED00E038B500F025FC104C2068C8B962
:102A40000F4800F0EDFB0E48143000F0E9FB0C4895
:102A5000E060143020610A4B0020F03B009003F14D
:102A6000500210210A2000F01FFF206010B105A1C4
:102A700000F0AAFCBDE8384000F024BC7000002043
:102A80006C070020546D72510000000030B4026CDD
:102A90000B46002A0BD0C1681144C1608468A14272
:102AA00001D30168C16030BC1846FDF7D9BB30BC0A
:102AB00070472DE9F041856B174604460026026CED
:102AC00082B1C7B1E068FDF7CBFBE168206C091A61
:102AD000E1602268914202D2A168081AE060022FE8
:102AE00016D017E02068A8B9A06801F0A7FB064639
:102AF0000020A0600EE06068FDF7B2FB216C60680A
:102B000008446060A168884204D32068606001E0E6
:102B100005B16D1E6D1CA5633046BDE8F08110B592
:102B2000044690F8590058B101280CD002280FD063
:102B3000502080F31188BFF34F8FBFF36F8FFEE7F4
:102B4000206B00F0D3FB2046BDE8104000F0CEBB68
:102B500010BD000010484FF44061420706D0C01D70
:102B60000D4920F00700411AC1F540610B4A0023CE
:102B70000144C2E900030839183A21F00701116045
:102B80004B600B600B1AC0E9001393604FF00040DC
:102B900053605061704700004C0E0020A0000020E0
:102BA000144E154CA6F29C474FF08058DFF84C901D
:102BB00012E000BF00F066FBF068C568281D00F059
:102BC00005FBA068401EA0606068401E606000F0C9
:102BD00079FB2846FFF7A3FF60680028EAD1386830
:102BE0000128F9D9C9F80080BFF34F8FBFF36F8F69
:102BF000F2E70000540600203400002004ED00E05D
:102C0000002807D00021816001600B460A46C160A0
:102C100000F0C2BE7047000070B51D46049C51B163
:102C2000C4F80020C4E90F010121204600F070FE25
:102C300084F84C5070BD2460F4E700002DE9F05F8B
:102C40008846DDE90B941546834691009A460A9E14
:102C5000A522206BFDF749FB6FF00301206B01EB10
:102C60008501084420F00707780707D0502080F33B
:102C70001188BFF34F8FBFF36F8FFEE70025B8F1C8
:102C8000000F0FD05FF00000221818F8001082F833
:102C9000341018F8001011B1401C1028F4D384F837
:102CA000435001E084F83450382E00D33726E662D2
:102CB000C4E91365201D00F0BEFA04F1180000F00D
:102CC000BAFA2461C6F138006462A061656584F8CF
:102CD000585052465946384600F066FA2060B9F11D
:102CE000000F01D0C9F80040BDE8F09F30B5114990
:102CF00000E011460A688242FBD34B685C188442AC
:102D000003D1406818444860084643681C18944240
:102D100009D1084C183C2468A24209D052681A44D0
:102D200042600A6812680260814200D0086030BDCB
:102D30000460F9E7A000002070B5002441600B4D4D
:102D40000061914206D8D11A8269914206D2011DD2
:102D5000286907E09A4203D2994201D3012403E093
:102D6000011DE86800F06AFA204670BD700000207E
:102D700010B5044600F086FAA06B28B15FF000049D
:102D800000F0A0FA204610BD0124F9E730B589B063
:102D90003C4D6EE00498002806DADDE90601059A4C
:102DA00090470498002864DB069C606910B1201DE0
:102DB00000F00CFA03A800F0D7F8024604980A289D
:102DC00057D2DFE800F00505052D334A05052D3300
:102DD00094F8280040F0010084F828000599A069C3
:102DE000059B01442046FFF7A7FF68B3216A2046F0
:102DF000884794F8280040073BD5002000900598AC
:102E0000A169002342181946204601F05DFBD8B99C
:102E1000502080F31188BFF34F8FBFF36F8FFEE711
:102E200014F8280F20F00100207022E094F8280008
:102E300040F0010084F828000598A06128B18118AD
:102E400013462046FFF778FF13E0502080F31188E7
:102E5000BFF34F8FBFF36F8FFEE794F82800810711
:102E600003D4204600F042FA03E020F0010084F889
:102E70002800002204A9286800F00AFF002889D150
:102E800009B030BD700000202DE9FC410F46054619
:102E900000F0F0FB01A800F067F80446019818B1B3
:102EA00001F080FABDE8FC81254EAFB130690068C1
:102EB000D0B30027291B3A46306800F0C5FA01F06C
:102EC00071FA0028EED11F494FF080500860BFF31F
:102ED0004F8FBFF36F8FE5E7A542EBD801F062FAA1
:102EE000F0682746C068C468201D00F06FF994F8A8
:102EF0002800410719D5A0692B4641193A462046BA
:102F0000FFF71AFFA8B100200346014600902A46A9
:102F1000204601F0D9FA60B9502080F31188BFF340
:102F20004F8FBFF36F8FFEE707E020F0010084F8BA
:102F30002800216A20468847B4E70127BAE7000045
:102F40007000002004ED00E00648416B096829B1DB
:102F5000416BC968C9684968816270474FF0FF31A9
:102F6000FAE700003400002070B5054601F0FCF8D7
:102F7000064E0446B068844203D200F009F80120EE
:102F800000E0002028602046B46070BD7000002082
:102F9000F8B5194D20E0C068C4680668201D00F02F
:102FA00015F9216A2046884794F82800400713D570
:102FB000A0693044B04206D924616060211DE868F0
:102FC00000F03CF908E0002003460146009032463C
:102FD000204601F079FA38B1E86801680029DAD1B1
:102FE0002969C5E90310F8BD502080F31188BFF3AB
:102FF0004F8FBFF36F8FFEE77000002008484068D6
:10300000401C4FF0500080F3118804D0BFF34F8F65
:10301000BFF36F8FFEE7BFF34F8FBFF36F8FFEE7F6
:10302000A8000020074CE068016841B1C068002199
:10303000D0F80000FFF728FFFFF7A8FEF3E7012113
:103040000020F7E7700000202DE9F041044600F071
:1030500019F994F9455004F1240609E0606A48B171
:10306000304601F067F908B100F03EFA6D1E6DB20E
:10307000002DF3DC4FF0FF3684F8456000F022F9B4
:1030800000F000F994F9445004F1100709E02069B8
:1030900048B1384601F04EF908B100F025FA6D1E2E
:1030A0006DB2002DF3DC84F84460BDE8F04100F01F
:1030B00009B900002DE9F0410546002700F0DAFAD1
:1030C000324E306808B9FFF745FD706905424ED1B0
:1030D000C5B3083568070ED005F00700C0F1080039
:1030E0000544680707D0502080F31188BFF34F8F45
:1030F000BFF36F8FFEE72DB37068854237D8234842
:10310000183001460C6801E020460C466168A9426F
:1031100002D221680029F7D131688C4227D0076894
:103120002168016060680837411B10290FD96019B8
:10313000420708D0502080F31188BFF34F8FBFF3B0
:103140006F8FFEE713E041606560FFF7CFFD6168B8
:103150007068401A7060B268904200D2B0607069C6
:1031600001430020C4E90001F068401CF06001F058
:1031700019F9780707D0502080F31188BFF34F8FDB
:10318000BFF36F8FFEE73846BDE8F081880000206E
:103190000449086818B10868026D521C0265086885
:1031A000704700003400002010B5031F4FF08074FA
:1031B0001C601B1F21F001011960191F024B0B60DD
:1031C000143940380A6010BDFD2F0008D0E90132E3
:1031D00001699A60D0E901235A604A68824201D1AC
:1031E00082684A60002202610868401E0860086820
:1031F00070470000034B036003F15C00086080200F
:103200001060704794070020044B036003F15C00DA
:1032100008604FF48070106070470000F0090020D3
:1032200000F108014FF0FF32C0E90112C1600161F5
:1032300000210160704700210161704730B50B68C3
:103240005A1C02D000F1080202E0026904E02246A2
:10325000546825689D42FAD953684B6099608A602A
:10326000516008610168491C016030BD42684A60D4
:1032700093688B6093685960916008610168491C8C
:1032800001607047502080F31188BFF34F8FBFF368
:103290006F8F0A494868401C486001280CD10848D3
:1032A000006810F0FF0F07D0502080F31188BFF3A3
:1032B0004F8FBFF36F8FFEE770470000A80000201C
:1032C00004ED00E00849486828B1401E486001D17B
:1032D00080F311887047502080F31188BFF34F8F1F
:1032E000BFF36F8FFEE70000A800002070B5002834
:1032F0002AD0164DA0F1080460686969084207D118
:10330000502080F31188BFF34F8FBFF36F8FFEE71C
:1033100022683AB1502080F31188BFF34F8FBFF37A
:103320006F8FFEE78843606000F0A4F96068696809
:10333000084468602046FFF7D9FC2869401C2861D2
:10334000BDE8704001F02EB870BD0000880000207C
:103350004FF0E02000210161816105494FF47A724C
:103360000968B1FBF2F1491E416107210161704713
:103370003000002010B5FCF74FFF114910280ED384
:1033800000F1E02090F8F0030A78904207D2502034
:1033900080F31188BFF34F8FBFF36F8FFEE70948AB
:1033A0000068896800F4E060884207D9502080F303
:1033B0001188BFF34F8FBFF36F8FFEE710BD000082
:1033C000A80000200CED00E010B5084B002200BF63
:1033D00053F832401CB1521C082AF9D310BD43F8EF
:1033E000321003EBC201486010BD000078010020DC
:1033F00010B504000AD000F013F894F84600002835
:103400000CD12046BDE81040FFF770BF502080F37C
:103410001188BFF34F8FBFF36F8FFEE710BD000021
:10342000084A002102EBC1035B68834206D10020F9
:1034300042F8310002EBC10148607047491C08297D
:10344000F0D370477801002070B515460E4604464B
:10345000FFF718FF94F944100020491C01D184F8AB
:10346000440094F94510491C01D184F84500FFF748
:1034700029FFA06B28B92A46314604F1240000F048
:1034800051F82046BDE87040FFF7DEBD10B50200E0
:1034900014D00F48006B38B1502080F31188BFF36F
:1034A0004F8FBFF36F8FFEE700F0E4F80021104666
:1034B000FFF72AFA00F076FF002807D105494FF000
:1034C00080500860BFF34F8FBFF36F8F10BD0000B7
:1034D0003400002004ED00E002490A6A0260C96875
:1034E000416070473400002001490120C8617047E5
:1034F0003400002010B50C4650B109490968183154
:10350000FFF79CFE2046BDE810400121FFF7FCB903
:10351000502080F31188BFF34F8FBFF36F8FFEE70A
:103520003400002070B514460D4668B10A49096898
:103530001831FFF79BFE0CB14FF0FF3521462846AE
:10354000BDE87040FFF7E0B9502080F31188BFF369
:103550004F8FBFF36F8FFEE73400002070B504007B
:103560003ED0226DA2B1E06C884200D30146E06AF1
:10357000884235D0012A33D11A4D2A6894420FD19E
:10358000502080F31188BFF34F8FBFF36F8FFEE79A
:10359000502080F31188BFF34F8FBFF36F8FFEE78A
:1035A000E162A269002A02DBC1F13801A1610E4E7D
:1035B00000EB8000616906EB8000814210D1201D84
:1035C000FFF704FEE06A2969884200D9286100EB10
:1035D000800006EB8000211DBDE87040FFF746BE6D
:1035E00070BD000034000020B801002030B587B065
:1035F0000024039405AA04A903A80494FFF7FAFD84
:10360000DDE903010094CDE90110002315A117485D
:10361000059A00F06AFD164D0028E8621FD000F000
:1036200023FF012809D0401C19D1502080F31188B4
:10363000BFF34F8FBFF36F8FFEE7502080F31188E9
:10364000BFF34F8FBFF36F8F4FF0FF30A8620120A1
:103650006861EC6007B0BDE8304000F045B807B0E5
:1036600030BD000049444C4500000000A12B00087B
:10367000340000200248016B491C016370470000C0
:1036800034000020164810B5016B11B10121C16151
:1036900010BD0021C1610169124A01E0B9B1491EA2
:1036A00001EB810352F82330002BF7D001EB8103AB
:1036B00002EB830202F1080453685B685360A34283
:1036C00001D15B685360DA680260016110BD50206F
:1036D00080F31188BFF34F8FBFF36F8FFEE70000B9
:1036E00034000020B80100201CB52649087801905C
:1036F000FF20087008788DF800009DF800009DF804
:10370000002000F0F000904207D0502080F3118894
:10371000BFF34F8FBFF36F8FFEE79DF800001A4C89
:1037200000F0500020700720A06005E09DF8002008
:1037300052008DF80020401E9DF800201206F5D49E
:10374000A060032807D0502080F31188BFF34F8F6B
:10375000BFF36F8FFEE74FF44070A06001980870D0
:103760000A48016841F470010160016841F070414C
:103770000160FFF7EDFD00206060FCF717FD002001
:103780001CBD000000E400E0A800002020ED00E0E7
:1037900010B5502080F31188BFF34F8FBFF36F8FA8
:1037A00000F0E8FC18B104494FF080500860002098
:1037B00080F3118810BD000004ED00E010B50C4648
:1037C00048B184420FD9502080F31188BFF34F8F46
:1037D000BFF36F8FFEE7502080F31188BFF34F8F48
:1037E000BFF36F8FFEE70222002100F03CF80028B3
:1037F00000D0846310BD38B50C4648B184420FD95F
:10380000502080F31188BFF34F8FBFF36F8FFEE717
:10381000502080F31188BFF34F8FBFF36F8FFEE707
:103820000221134600220091114600F03DF80028C5
:1038300000D0846338BD10B502460021012000F09D
:1038400012F80446FFF7DCF9204610BD38B50B46E8
:10385000002200901146012000F026F80446FFF7F0
:10386000CFF9204638BDF8B517460E46050013D0EF
:1038700005FB06F05030FFF71DFC04000AD00020C5
:1038800084F8460004F150023B4631462846009435
:10389000FFF7C2F92046F8BD502080F31188BFF32E
:1038A0004F8FBFF36F8FFEE738B5049D18B153B14A
:1038B000CAB181B120E0502080F31188BFF34F8F4F
:1038C000BFF36F8FFEE7502080F31188BFF34F8F57
:1038D000BFF36F8FFEE7502080F31188BFF34F8F47
:1038E000BFF36F8FFEE739B1502080F31188BFF32B
:1038F0004F8FBFF36F8FFEE750241C46012384F8DF
:1039000046302B460094FFF787F9204638BD00006B
:1039100070B50D46040025D0FFF7B4FCD4E90F20A4
:10392000216802FB0011A1600021A1632168616090
:103930000A46D4E90F01401E00FB0121E160214647
:103940004FF0FF3001F8440F487004F110008DB1C2
:10395000FFF766FC04F12400FFF762FCFFF7B2FCFE
:10396000012070BD502080F31188BFF34F8FBFF34B
:103970006F8FFEE721690029F0D000F0DBFC002802
:10398000ECD004494FF080500860BFF34F8FBFF375
:103990006F8FE3E704ED00E02DE9FF4782B01D469D
:1039A0008A464FF00008040003D0BAF1000F08D097
:1039B00011E0502080F31188BFF34F8FBFF36F8F5A
:1039C000FEE7206C38B1502080F31188BFF34F8F91
:1039D000BFF36F8FFEE7022D0AD1E06B012807D0FD
:1039E000502080F31188BFF34F8FBFF36F8FFEE736
:1039F00000F0ACFB3F4F4FF000094FF0805648B944
:103A0000049838B1502080F31188BFF34F8FBFF373
:103A10006F8FFEE7FFF736FCA06BE16B884207D3A0
:103A2000022D05D00498D0B1B8F1000F1AD01EE0D5
:103A30002A4651462046FFF73CF8616A19B104F165
:103A4000240000F077FC20B13E60BFF34F8FBFF33E
:103A50006F8FFFF737FC012006B0BDE8F087FFF756
:103A600031FC22E06846FFF737FD4FF00108FFF711
:103A700029FCFFF7FFFDFFF705FC94F94400401C0B
:103A800001D184F8449094F94500401C01D184F898
:103A90004590FFF717FC04A9684600F0BFFA30B163
:103AA0002046FFF7D1FA00F07DFC0020D4E7FFF7B5
:103AB000E9FBA06BE16B884213D1FFF703FC04F133
:103AC00010000499FFF716FD2046FFF7BDFA00F03D
:103AD00069FC00289ED13E60BFF34F8FBFF36F8F0C
:103AE00098E7FFF7EFFB2046FFF7AEFA00F05AFC2D
:103AF00090E7000004ED00E02DE9F0471F469046F6
:103B00008946040003D0B9F1000F08D011E050201D
:103B100080F31188BFF34F8FBFF36F8FFEE7206CE8
:103B200038B1502080F31188BFF34F8FBFF36F8FF0
:103B3000FEE7022F0AD1E06B012807D0502080F366
:103B40001188BFF34F8FBFF36F8FFEE7FFF712FCB3
:103B50005020EFF3118680F31188BFF34F8FBFF32E
:103B60006F8FA06BE16B884206D3022F04D0002038
:103B700086F31188BDE8F08794F94550A06B3A466A
:103B800049462046FEF795FF681C04D06D1C84F85A
:103B900045500120ECE7606A0028FAD004F12400C7
:103BA00000F0C8FB0028F4D0B8F1000FF1D00121DB
:103BB000C8F80010EDE770B50E46040009D0206C7F
:103BC00078B1502080F31188BFF34F8FBFF36F8F10
:103BD000FEE7502080F31188BFF34F8FBFF36F8F44
:103BE000FEE7206848B9A06838B1502080F31188FA
:103BF000BFF34F8FBFF36F8FFEE7FFF7BBFB502084
:103C0000EFF3118580F31188BFF34F8FBFF36F8FF0
:103C1000A16BE06B884218D994F94500491CA16357
:103C2000411C04D0401C84F8450001200EE0606A6D
:103C30000028FAD004F1240000F07CFB0028F4D026
:103C4000002EF2D001203060EFE7002085F31188CC
:103C500070BD10B5040009D000F072FAA168884266
:103C600014D1E068401EE06008D00DE0502080F3E1
:103C70001188BFF34F8FBFF36F8FFEE700231A4603
:103C800019462046FFF788FE012010BD002010BD18
:103C90002DE9F747002683B08A46040003D0BAF125
:103CA000000F08D011E0502080F31188BFF34F8F30
:103CB000BFF36F8FFEE7206C38B1502080F311887E
:103CC000BFF34F8FBFF36F8FFEE700F03FFADFF8CF
:103CD000F4804FF000094FF0805748B9059838B18B
:103CE000502080F31188BFF34F8FBFF36F8FFEE733
:103CF000FFF7C8FAA56BC5B151462046FEF7C6FED0
:103D00006D1EA563206950B104F1100000F012FB94
:103D100028B1C8F80070BFF34F8FBFF36F8FFFF764
:103D2000D1FA012006B0BDE8F087059808B11EB1B0
:103D300006E0FFF7C7FA27E06846FFF7CDFB01264C
:103D4000FFF7C0FAFFF796FCFFF79CFA94F94400DE
:103D5000401C01D184F8449094F94500401C01D1E5
:103D600084F84590FFF7AEFA05A9684600F056F9C9
:103D7000002820460AD0FFF767F900F013FB204621
:103D8000FEF7F6FF0028B3D00020CBE7FEF7F0FFE8
:103D900090B104F124000599FFF7ACFB2046FFF732
:103DA00053F900F0FFFA0028A2D1C8F80070BFF361
:103DB0004F8FBFF36F8F9BE72046FFF745F900F069
:103DC000F1FA95E704ED00E02DE9F04790468946C9
:103DD000040003D0B9F1000F08D011E0502080F3A7
:103DE0001188BFF34F8FBFF36F8FFEE7206C38B1A0
:103DF000502080F31188BFF34F8FBFF36F8FFEE722
:103E0000FFF7B8FA5020EFF3118680F31188BFF363
:103E10004F8FBFF36F8FA76BF7B194F944504946AA
:103E20002046FEF733FE7F1EA763681C04D06D1C7E
:103E300084F84450012010E020690028FAD004F1F1
:103E4000100000F077FA0028F4D0B8F1000FF1D09C
:103E50000121C8F80010EDE7002086F31188BDE8C5
:103E6000F08700002DE9F343002683B004003546B7
:103E700009D0206C78B1502080F31188BFF34F8FA8
:103E8000BFF36F8FFEE7502080F31188BFF34F8F91
:103E9000BFF36F8FFEE700F059F9DFF83C814FF078
:103EA00000094FF0805748B9049838B1502080F38A
:103EB0001188BFF34F8FBFF36F8FFEE7FFF7E2F973
:103EC000A06BC8B1401EA063206810B9FFF760F96D
:103ED000A060206950B104F1100000F02BFA28B165
:103EE000C8F80070BFF34F8FBFF36F8FFFF7EAF989
:103EF000012005B0BDE8F083049808B166B10FE079
:103F00003DB1502080F31188BFF34F8FBFF36F8F07
:103F1000FEE7FFF7D7F95DE06846FFF7DDFA012617
:103F2000FFF7D0F9FFF7A6FBFFF7ACF994F94400CF
:103F3000401C01D184F8449094F94500401C01D103
:103F400084F84590FFF7BEF904A9684600F066F8CA
:103F50000028204612D0FFF777F800F023FA204619
:103F6000FEF706FF0028A9D09DB3FFF78BF9606A22
:103F700050B3206B0068C0F1380126E0FEF7F8FE70
:103F8000E0B1206838B9FFF77DF9A06800F096F934
:103F90000546FFF797F904F124000499FFF7AAFA00
:103FA0002046FFF751F800F0FDF9002886D1C8F847
:103FB0000070BFF34F8FBFF36F8F7FE72046FFF78F
:103FC00043F800F0EFF979E70021A068FFF7C6FA9F
:103FD0009FE7FFE700208CE704ED00E070B50D4699
:103FE000040009D000F0ACF8A16888420CD1E06868
:103FF000401CE060012070BD502080F31188BFF3A9
:104000004F8FBFF36F8FFEE729462046FFF72AFF49
:104010000028F0D0E168491CE16070BD2DE9F04155
:104020000C46050011D0C4B1FFF72CF9174BDA6824
:104030006E682068911B471C17D02F681B6A9F422F
:1040400019D0964217D8012410E0502080F311882F
:10405000BFF34F8FBFF36F8FFEE7502080F31188BF
:10406000BFF34F8FBFF36F8FFEE70024FFF72AF9EE
:104070002046BDE8F081884205D9401A20602846D4
:10408000FFF72AFAF1E700202060DCE73400002087
:104090002DE9FF5F8346DDE90E87994616468A467D
:1040A0009000FFF707F805001CD05C20FFF702F82E
:1040B000040014D00020256384F85900CDE90240A3
:1040C000CDE900874B46324651465846FEF7B6FDCD
:1040D0002046FEF747FC012004B0BDE8F09F2846CB
:1040E000FFF704F94FF0FF30F6E7F0B585B0DDE9F2
:1040F0000B640A9DA6B1DCB15C27009726630226FB
:1041000084F85960002604AFCDE90246CDE9005796
:10411000FEF794FD2046FEF725FC049805B0F0BD9F
:10412000502080F31188BFF34F8FBFF36F8FFEE7EE
:10413000502080F31188BFF34F8FBFF36F8FFEE7DE
:1041400001480068704700003400002005484169BC
:1041500019B1006B18B10020704701207047022090
:1041600070470000340000200148C068704700001C
:10417000340000202DE9F0412E4C0027206B28B19F
:10418000A069401CA0613846BDE8F081E668761C55
:10419000E66013D1606B006838B1502080F311885D
:1041A000BFF34F8FBFF36F8FFEE7606BA16B61634F
:1041B000A063206A401C2062FEF7C6FEA06ADFF8FA
:1041C0007880864209D3606B0068A0B1606BC068DC
:1041D000C5686868864211D2A0622068C06A00EB98
:1041E000800158F82100012800D90127E069002842
:1041F000C9D00127C7E74FF0FF30EDE7281DFEF7D4
:10420000E5FFA86A18B105F11800FEF7DFFFE86ABC
:104210002169884200D9206100EB800108EB810010
:10422000291DFFF723F8E86A2168C96A8842CAD3C2
:104230000127C8E734000020B801002070B5040051
:104240004FF0000133D01B4D2868844207D0502026
:1042500080F31188BFF34F8FBFF36F8FFEE7206DA0
:1042600038B1401E2065E36CE26A9A421FD040B12B
:104270001DE0502080F31188BFF34F8FBFF36F8F85
:10428000FEE7201DFEF7A2FFE06CE062C0F13800FF
:10429000A061E06A2969884200D92861064900EBDB
:1042A000800001EB8000211DFEF7E0FF01210846A0
:1042B00070BD000034000020B801002070B504007B
:1042C0004FF000002BD0194DE16A2A68D26A914262
:1042D00026D2A069002804DB2868C06AC0F1380033
:1042E000A061134E01EB8101606906EB81018842F8
:1042F00011D1201DFEF76AFF2868C06AE0622969B3
:10430000884200D9286100EB800006EB8000211D67
:10431000FEF7ACFF02E02868C06AE062012070BDD1
:10432000E16C2A68D26A9142F8D370BD3400002053
:10433000B801002070B5C068C46854B104F1180019
:104340000646FEF743FF144D286B50B13146134823
:1043500015E0502080F31188BFF34F8FBFF36F8FAC
:10436000FEE7201DFEF732FFE06A2969884200D986
:1043700028610B4900EB800001EB8000211DFEF756
:1043800075FFE06A2968C96A884202D90120E8619C
:1043900070BD002070BD00003400002040060020E9
:1043A000B80100202DE9F0472C4D00242746286B4A
:1043B00038B1FEF767FF286B401E2863286B40B1B9
:1043C00046E0502080F31188BFF34F8FBFF36F8F0B
:1043D000FEE7A968224E0120D1B3A6F59169804677
:1043E0003068E0B1F068C46804F11800FEF7EEFE32
:1043F000201DFEF7EBFEE06A2969884200D928619A
:1044000000EB800109EB8100211DFEF72FFFE06A20
:104410002968C96A8842E3D3C5F81C80E0E70CB17B
:10442000FEF792FDAC694CB14FEA0806FFF7A2FE19
:1044300000B1EE61641EF9D10020A861E86938B1CD
:104440000849012738070860BFF34F8FBFF36F8F0C
:10445000FEF738FF3846BDE8F08700003400002042
:104460004006002004ED00E010B586B0FEF7E2FA49
:10447000114C2068B8B100200390049005AA04A94B
:1044800003A8FEF7C1FEDDE9032102208DE8070045
:1044900000230AA10B48059AFFF727FE606010B1C0
:1044A00006B0012010BD502080F31188BFF34F8F5C
:1044B000BFF36F8FFEE7000070000020546D722084
:1044C00053766300253000082DE9FF411E46134650
:1044D00002000A9D4FF0000016D0144C2768002FF0
:1044E0000FD0CDE900130292062917DAFFF72EFE4E
:1044F00002284FF000030FD0002269462068FFF722
:104500004BFA04B0BDE8F081502080F31188BFF36E
:104510004F8FBFF36F8FFEE72A46EEE70023324648
:1045200069463846FFF7E8FAEBE700007000002024
:10453000000000000000000000000000000000007B
:1045400000FE020202020202003F20202020202062
:10455000000000000000000000000000000000005B
:1045600000FE020202020202003F20202020202042
:1045700000FE020202020202003F20202020202032
:1045800000FE020202020202003F20202020202022
:1045900000FE020202020202003F20202020202012
:1045A00000FE020202020202003F20202020202002
:1045B00000FE020202020202003F202020202020F2
:1045C00000000000000000000000000000000000EB
:1045D00000000000000000000000000000000000DB
:1045E00000000000000000000000000000000000CB
:1045F00000FE020202020202003F202020202020B2
:1046000000FE020202020202003F202020202020A1
:1046100000FE020202020202003F20202020202091
:1046200000FE020202020202003F20202020202081
:1046300000FE020202020202003F20202020202071
:1046400000FE020202020202003F20202020202061
:1046500000FE020202020202003F20202020202051
:1046600000FE020202020202003F20202020202041
:1046700000FE020202020202003F20202020202031
:1046800000FE020202020202003F20202020202021
:1046900000FE020202020202003F20202020202011
:1046A00000FE020202020202003F20202020202001
:1046B00000FE020202020202003F202020202020F1
:1046C00000FE020202020202003F202020202020E1
:1046D00000FE020202020202003F202020202020D1
:1046E00000FE020202020202003F202020202020C1
:1046F00000000000000000000000000000000000BA
:1047000000000000000000000000000000000000A9
:104710000000000000000000000000000000000099
:104720000000000000000000000000000000000089
:104730000000000000000000000000000000000079
:10474000000000F80000000000000033000000003E
:1047500000100C02100C020000000000000000001D
:104760000040C07840C0780000043F04043F0400CB
:1047700000708888FC08300000182020FF211E00EF
:10478000F008F0806018000000310C031E211E00AC
:1047900000F00888700000001E21232C192721102A
:1047A00000120E00000000000000000000000000E9
:1047B000000000E01804020000000007182040007C
:1047C00000020418E000000000402018070000006C
:1047D000404080F0804040000202010F01020200D0
:1047E00000000000E0000000000101010F010101D4
:1047F00000000000000000000090700000000000B9
:1048000000000000000000000001010101010100A2
:104810000000000000000000003030000000000038
:1048200000000000C038040000601807000000000D
:1048300000E010080810E000000F102020100F000A
:1048400000001010F8000000000020203F20200091
:10485000007008080808F0000030282422213000E9
:1048600000300808088870000018202121221C0050
:104870000000804030F8000000060524243F242476
:1048800000F88888880808000019202020110E00F0
:1048900000E0108888900000000F112020201F00E9
:1048A00000180808886818000000003E0100000099
:1048B0000070880808887000001C222121221C003A
:1048C00000F008080810E0000001122222110F0079
:1048D000000000C0C00000000000003030000000F8
:1048E0000000008000000000000000E00000000068
:1048F0000000804020100800000102040810200081
:10490000004040404040400000020202020202001B
:104910000008102040800000002010080402010060
:104920000070480808887000000000303700000060
:10493000C030C828E810E000071827282F281700E3
:104940000000C038E0000000203C2302022738208D
:1049500008F8888888700000203F202020110E0071
:10496000C030080808083800071820202010080068
:1049700008F808080810E000203F202020100F0051
:1049800008F88888E8081000203F2020232018001D
:1049900008F88888E8081000203F20000300000085
:1049A000C03008080838000007182020221E020026
:1049B00008F808000008F808203F210101213F20E5
:1049C000000808F8080800000020203F2020000010
:1049D00000000808F8080800C08080807F00000000
:1049E00008F888C028180800203F20012638200039
:1049F00008F8080000000000203F202020203000A0
:104A000008F8F800F8F80800203F013E013F2000B8
:104A100008F830C00008F808203F200007183F00C1
:104A2000E01008080810E0000F10202020100F00F0
:104A300008F808080808F000203F210101010000E3
:104A4000E01008080810E0000F10282830504F0030
:104A500008F8888888887000203F2000030C3020E8
:104A600000708808080838000038202121221C0026
:104A7000180808F8080818000000203F200000006F
:104A800008F808000008F808001F202020201F0058
:104A90000878880000C83808000007380E010000B8
:104AA00008F800F800F8080000033E013E0300008B
:104AB000081868808068180820302C03032C3020E8
:104AC0000838C800C83808000000203F2000000057
:104AD00010080808C83808002038262120201800AF
:104AE000000000FE020202000000007F4040400083
:104AF000000438C000000000000000010638C000BB
:104B000000020202FE000000004040407F00000062
:104B10000000040202040000000000000000000089
:104B20000000000000000000808080808080808085
:104B3000000202040000000000000000000000006D
:104B4000000080808000000000192424123F200013
:104B500010F0008080000000003F112020110E00A6
:104B60000000008080800000000E11202020110035
:104B7000000080808090F000001F202020103F2047
:104B80000000808080800000001F2424242417005F
:104B9000008080E0909020000020203F2020000036
:104BA0000000808080808000006B9494949360006B
:104BB00010F0008080800000203F210000203F2076
:104BC00000809898000000000020203F2020000076
:104BD000000000809898000000C08080807F000066
:104BE00010F0000080808000203F24062930200043
:104BF000001010F8000000000020203F20200000DE
:104C00008080808080808000203F20003F20003F07
:104C10008080008080800000203F210000203F2015
:104C20000000808080800000001F202020201F00C6
:104C3000808000808000000080FF912020110E0005
:104C40000000008080008000000E11202091FF8075
:104C5000808080008080800020203F212000010093
:104C600000008080808080000033242424241900E8
:104C7000008080E0808000000000001F20201000E5
:104C80008080000000808000001F202020103F2036
:104C9000808080008080800000030C300C030000C6
:104CA0008080008080008080010E300C0738060173
:104CB00000808080008080000020310E2E31200096
:104CC0008080800000808080008186781806010046
:104CD00000808080808080000021302C22213000E4
:104CE0000000000000FC020200000000013E404005
:104CF00000000000FF00000000000000FF000000B6
:104D00000202FC000000000040403E0100000000E4
:104D10000002010202040200000000000000000086
:104D20000000000000000000000000000000000083
:104D3000184E000800000000000000000000000005
:104D40000000000000020000180000000000000049
:104D500000000000244E00080000000000000000D9
:104D60000000000000000000000200001800000029
:104D700000000000000000000C4E000800000000D1
:104D80000000000000000000000000000002000021
:104D9000100000000000000000000000304E00087D
:104DA0000000000000000000000000000000000003
:104DB00000020000280000000000000000000000C9
:104DC000484E000800000000000000000000000045
:104DD0003C4E000800000000000000000000000041
:104DE000010202030405060708090A0B0C0D0E0F49
:104DF000101000000000000000000102030406077C
:104E00000809000000000102030400005461736BF4
:104E10005F54504D5300000064656661756C7454B6
:104E200061736B005461736B5F446F6F72000000BD
:104E30005461736B5F4661756C74000053656D5F00
:104E40004661756C740000004D757465785F434170
:104E50004E5F547800000000784E000800000020EB
:104E6000B4000000280100082C4F0008B400002006
:104E7000FC1F00004401000802000000DC000020CC
:104E80000000FA0000000000000000000000000028
:104E90000000000000000000000000000100000011
:104EA000100000000000000000127A000000000066
:104EB00000000000000000000000000000000000F2
:104EC00000000000000000000000000000000000E2
:104ED00000000000000000000000000000000000D2
:104EE00000000000000000000000000000000000C2
:104EF00000000000000000000000000000000000B2
:104F000000000000000000000000000000000000A1
:104F10000000000000000000000000000000000091
:0C4F200000000000AAAAAAAA00000000DD
:04000005080000ED02
:00000001FF
