:020000040800F2
:100000008808002439030008074500084940000813
:100010000545000847040008A54A00080000000044
:10002000000000000000000000000000014900087E
:10003000990800080000000009450008034900086D
:100040005703000857030008570300085703000828
:100050005703000857030008570300085703000818
:100060005703000857030008570300084904000815
:1000700055040008570300085703000857030008F9
:1000800057030008570300085703000857030008E8
:1000900057030008570300085703000857030008D8
:1000A00057030008570300085703000857030008C8
:1000B00057030008570300085703000857030008B8
:1000C00057030008570300085703000857030008A8
:1000D0004D4700085703000857030008570300085E
:1000E00057030008570300080000000057030008EA
:1000F0005703000857030008570300085703000878
:100100005703000857030008570300085703000867
:100110005703000857030008570300085703000857
:100120005703000857030008570300085703000847
:100130005703000857030008570300085703000837
:1001400000000000000000000000000000000000AF
:100150005703000857030008570300085703000817
:100160005703000857030008570300085703000807
:100170005703000857030008570300080000000059
:1001800057030008570300085703000857030008E7
:1001900057030008570300085703000857030008D7
:1001A00057030008570300085703000857030008C7
:1001B00057030008570300085703000857030008B7
:1001C00057030008570300085703000857030008A7
:1001D0005703000857030008570300085703000897
:1001E0005703000857030008570300085703000887
:1001F0005703000857030008570300085703000877
:100200005703000857030008570300085703000866
:100210005703000857030008570300085703000856
:1002200057030008570300085703000800000000A8
:100230005703000857030008000000005703000898
:100240005703000857030008570300085703000826
:100250005703000857030008570300085703000816
:100260005703000857030008570300085703000806
:100270005703000857030008570300080000000058
:100280005703000857030008570300080000000048
:10029000000000005703000800F002F800F03CF8EE
:1002A0000AA090E8000C82448344AAF10107DA45D1
:1002B00001D100F031F8AFF2090EBAE80F0013F0E7
:1002C000010F18BFFB1A43F00103184780490000D3
:1002D000A0490000103A24BF78C878C1FAD8520764
:1002E00024BF30C830C144BF04680C6070470000B0
:1002F0000023002400250026103A28BF78C1FBD82F
:10030000520728BF30C148BF0B6070471FB504F0CB
:100310008BFC1FBD10B510BD00F05CF81146FFF757
:10032000F5FF04F0D1FB00F07AF803B4FFF7F2FF19
:1003300003BC00F081F800000A4880470A48804763
:100340000A480047FEE7FEE7FEE7FEE7FEE7FEE7B6
:10035000FEE7FEE7FEE7FEE705480649064A074BCB
:1003600070470000A1080008AD4900089902000884
:1003700088020024880800248804002488040024BB
:100380004FF0000200B5134694469646203922BF2E
:10039000A0E80C50A0E80C50B1F12001BFF4F7AF79
:1003A000090728BFA0E80C5048BF0CC05DF804EB5B
:1003B000890028BF40F8042B08BF704748BF20F8C9
:1003C000022B11F0804F18BF00F8012B70477047C7
:1003D00070477047754600F02BF8AE460500694639
:1003E000534620F00700854618B020B5FFF7B4FF4C
:1003F000BDE820404FF000064FF000074FF0000826
:100400004FF0000B21F00701AC46ACE8C009ACE8A6
:10041000C009ACE8C009ACE8C0098D46704710B50A
:100420000446AFF300802046BDE81040FFF77DBFD3
:10043000004870472402002401491820ABBEFEE7A3
:10044000260002007047FEE7014800F02BBD0000C7
:1004500034010024014800F025BD0000AC01002457
:10046000294A016891423AD0274A1832914236D03F
:10047000254A3032914232D0234A483291422ED01E
:10048000214A603291422AD01F4A7832914226D0C6
:100490001D4A9032914222D01B4AA83291421ED06E
:1004A0001A4A91421BD0194A1832914217D0174A62
:1004B0003032914213D0154A483291420FD0134A3C
:1004C000603291420BD0114A7832914207D00F4AE4
:1004D0009032914203D00D4AA832914211D1CAB252
:1004E0001823103AB2FBF3F26FF30901032A02F06A
:1004F0000703074AD25CC26500D9091D8165084619
:10050000704721F0FF01F9E710000240100402409B
:10051000324C000830B5224A012301689142CAB228
:100520001BD01F4C1434A14217D01D4C2834A142BB
:1005300013D01B4C3C34A1420FD0194C5034A14273
:100540000BD0174C6434A14207D0154C7834A1422B
:1005500003D0134C8C34A1420CD11421114C083A15
:10056000B2FBF1F10F4A803201F01F0504EB81016B
:10057000AB4010E00C4D1824103A0D44B2FBF4F1DE
:10058000A82D00D80831094A01F01F0402EB8101AF
:10059000064AA3408032603080E80E0030BD000083
:1005A0000854025800580258F0FBFDBF00080240F2
:1005B00010B50279531E072B2DD8174C0168A142A4
:1005C0001BD0154C1434A14217D0134C2834A1422F
:1005D00013D0114C3C34A1420FD00F4C5034A142E7
:1005E0000BD00D4C6434A14207D00B4C7834A1429F
:1005F00003D0094C8C34A14203D10849074C443143
:1006000002E00749064C443104EB8202C0E91B2199
:1006100001219940416710BD08540258FC58025806
:10062000FC08024010B583694FF0C074826A01462D
:10063000002053B1B3F5005F15D072B1012A0CD080
:10064000022A0AD0032A09D104E01AB1012A06D0ED
:10065000022A03D1C96AC90100D5012010BDC96AA7
:10066000A142FAD010BD002AF7D0012AF2D0022A06
:10067000F3D0032AF3D010BD2DE9F04F804E804F08
:10068000DFF8FC911836DFF8F8A148370468856D6B
:100690000AF1300ADFF8ECB14C45DFF8ECC1DFF8C5
:1006A000ECE16DD0B4426BD0544569D0BC4267D008
:1006B000DFF8D081A8F11808444561D05C455FD0CF
:1006C00064455DD074455BD0DFF8C481444557D0A4
:1006D000DFF8BC8108F11808444551D0DFF8B0813B
:1006E00008F1300844454BD0DFF8A48108F14808F0
:1006F000444545D0DFF8988108F1600844453FD073
:10070000DFF88C8108F17808444539D0DFF8808122
:1007100008F19008444533D0DFF8748108F1A80847
:1007200044452DD0DFF86C81444529D0DFF8648141
:1007300008F11408444523D0DFF8588108F128084F
:1007400044451DD0DFF84C8108F13C08444517D0E2
:10075000DFF8408108F15008444511D0DFF83481BA
:1007600008F1640844450BD0DFF8288108F17808C7
:10077000444505D0DFF81C8108F18C08444509D1B7
:10078000D0E91948C4F80480C46E1CB1D0E91C48F3
:10079000C4F8048004684C452ED0B4422CD0544593
:1007A0002AD0BC4228D0374E183EB44224D05C45F3
:1007B00022D0644520D074451ED0354EB4421BD0A3
:1007C000334E1836B44217D0314E3036B44213D0BF
:1007D0002F4E4836B4420FD02D4E6036B4420BD067
:1007E0002B4E7836B44207D0294E9036B44203D00F
:1007F000274EA836B44215D190F85C603F2406F02D
:100800001F06B440AC600468256825F48025256087
:100810002EE09A600068C160BDE8F08F99600068C2
:10082000C260F9E71B4EB4421BD01A4E1436B442D4
:1008300017D0184E2836B44213D0164E3C36B44268
:100840000FD0144E5036B4420BD0124E6436B44220
:1008500007D0104E7836B44203D00E4E8C36B442D8
:10086000DAD190F85C60012406F01F06B4406C6099
:10087000046863608368402B0368CFD1C9E7000038
:100880001000024088000240A0000240B800024070
:100890001004024008540258704772B6FEE7000088
:1008A000054805490839026842F0020202600868FA
:1008B0008004FCD5704700000C4802582DE9F84F21
:1008C000044601F0C7FA00903CB194F835000228C4
:1008D00006D0802161650020E4E00120BDE8F88FAA
:1008E000C74DC74EC649183520683036DFF8148327
:1008F000DFF814938842DFF814A3DFF814B32ED086
:10090000A8422CD0B0422AD0404528D0484526D015
:10091000504524D0584522D0BD4A183290421ED0AE
:10092000BC4A90421BD0BB4A1832904217D0B94AF9
:100930003032904213D0B74A483290420FD0B54A75
:10094000603290420BD0B34A7832904207D0B14A1D
:100950009032904203D0AF4AA832904209D1026847
:1009600022F01E0202602068426922F08002426189
:1009700003E0026822F00E02026027688F423846C8
:100980004DD0A8424BD0B04249D0404547D0484511
:1009900045D0504543D0584541D09D4A18329042E9
:1009A0003DD09C4A90423AD09A4A1832904236D072
:1009B000984A3032904232D0964A483290422ED0F5
:1009C000944A603290422AD0924A7832904226D09D
:1009D000904A9032904222D08E4AA83290421ED045
:1009E0008D4A90421BD08C4A1432904217D08A4ACA
:1009F0002832904213D0884A3C3290420FD0864A27
:100A0000503290420BD0844A6432904207D0824ADE
:100A10007832904203D0804A8C32974204D1206EC3
:100A2000026822F48072026075492068884228D0EA
:100A3000A84226D0B04224D0404522D0484520D0FC
:100A400050451ED058451CD071491831884218D0E5
:100A50007049884215D06F491831884211D06D49CC
:100A6000303188420DD06B494831884209D06949FC
:100A70006031884205D067497831884201D06549A4
:100A80009031016821F0010101600EE001F0E2F90E
:100A90000099401A052808D9202262650321002008
:100AA00084F8351084F8340017E73868C007EDD1B2
:100AB000534A0121206890422ED0A8422CD0B04247
:100AC0002AD0404528D0484526D0504524D0584506
:100AD00022D04F4B183398421ED04E4B98421BD019
:100AE0004C4B1833984217D04A4B3033984213D0AE
:100AF000484B483398420FD0464B603398420BD056
:100B0000444B7833984207D0424B9033984203D0FD
:100B1000404BA833984208D194F85C703F23A06DF5
:100B200007F01F07BB40836007E094F85C30A06DBE
:100B300003F01F0301FA03F34360206890424DD095
:100B4000A8424BD0B04249D0404547D0484545D057
:100B5000504543D0584541D02D4A183290423DD09F
:100B60002C4A90423AD02B4A1832904236D0294A29
:100B70003032904232D0274A483290422ED0254A15
:100B8000603290422AD0234A7832904226D0214ABD
:100B90009032904222D01F4AA83290421ED01E4A64
:100BA00090421BD01C4A1432904217D01A4A283265
:100BB000904213D0184A3C3290420FD0164A50321D
:100BC00090420BD0144A6432904207D0124A7832D5
:100BD000904203D0104A8C3290420BD1D4E91902D2
:100BE0004260E06E30B1026822F480720260D4E9A3
:100BF0001C024260002084F8351084F834006DE651
:100C0000100002405800024070000240880002407C
:100C1000A000024010040240085402582DE9F05F81
:100C200028B190F83510022904D0802141650120B7
:100C3000BDE8F09F904C904B0168183C18338E4AE9
:100C4000DFF83C92A1428D4CDFF838E28E4FDFF89E
:100C50003CB2DFF83CA28F4D8F4E31D091422FD065
:100C600099422DD0A1422BD0494529D0714527D09A
:100C7000B94225D0DFF810C20CF1180C61451FD025
:100C8000DFF808C2ACF1600C614519D0DFF8FCC197
:100C9000ACF1480C614513D0DFF8F0C1ACF1300C79
:100CA00061450DD0DFF8E4C1ACF1180C614507D007
:100CB000594505D0514503D0A94201D0B1422CD1AC
:100CC000DFF8B4C14FF0040880F83580ACF1180C9F
:100CD00061451DD091421BD0994219D0A14217D035
:100CE000494515D0714513D0B94211D06648183026
:100CF00081420DD065486038814209D06348483848
:100D0000814205D061483038814201D05F481838AF
:100D1000086820F001000860ABE0D1F800C02CF0BA
:100D20000E08DFF854C1C1F80080ACF1180C01685E
:100D3000614527D0914225D0994223D0A14221D0AC
:100D400049451FD071451DD0B9421BD0DFF838C1CD
:100D50000CF1180C614515D0DFF830C1ACF1600C16
:100D600061450FD0DFF824C1ACF1480C614509D0D2
:100D7000DFF818C1ACF1300C614503D0DFF80CC1CD
:100D8000ACF1180CD1F800C02CF0010CC1F800C077
:100D9000DFF8E4804FF0010C0168A8F11808414524
:100DA00046D0914244D0994242D0A14240D04945D8
:100DB0003ED071453CD0B9423AD0334A18329142C4
:100DC00036D0324A603A914232D0304A483A914263
:100DD0002ED02E4A303A91422AD02C4A183A9142CB
:100DE00026D0594524D0514522D0A94220D0B14225
:100DF0001ED02A4A91421BD0284A1432914217D061
:100E0000264A2832914213D0244A3C3291420FD0D4
:100E1000224A503291420BD0204A6432914207D08C
:100E20001E4A7832914203D01C4A8C32914218D12A
:100E3000016E0A6822F480720A6090F85C20816D6D
:100E400002F01F020CFA02F24A60D0E919124A605D
:100E5000C16E31B10A6822F480720A60D0E91C12B6
:100E60004A600022016D80F835C080F8342001B15D
:100E700088470020DCE600002800024058000240BD
:100E80007000024088000240A0000240700402404E
:100E900088040240A0040240B804024008540258EA
:100EA000406D70472DE9FC5F0446F74E0020DFF8E7
:100EB000D88300904FF41652F44808F11808A56D35
:100EC000DFF8C493DFF8C0A3016809F13009206896
:100ED0000AF1480AB1FBF2F1B04201912F68D5F84E
:100EE00000C0DFF8ACB335D04146884232D0484527
:100EF00030D050452ED058452CD0E5491831884285
:100F000028D0E3493031884224D0E1494831884231
:100F100020D0E04988421DD0DE491831884219D0DE
:100F2000DC493031884215D0DA494831884211D045
:100F3000DFF860E30EF1600E70450BD0D54A7832D1
:100F4000904207D0D34B9033984203D0D149A83177
:100F500088427DD194F85C20082102F01F0201FA3A
:100F600002F23A424AD0B04232D0404530D04845F1
:100F70002ED050452CD058452AD0C54A1832904220
:100F800026D0C34A3032904222D0C14A48329042E1
:100F90001ED0C04A90421BD0BE4A1832904217D091
:100FA000BC4A3032904213D0BA4A483290420FD0F5
:100FB000B84A603290420BD0B64A7832904207D09D
:100FC000B44A9032904203D0B24AA832904203D140
:100FD000026802F0040202E0026802F008026AB14C
:100FE000026822F00402026094F85C0000F01F0026
:100FF0008140A960606D40F00100606594F85C007C
:10100000012100F01F008140394240D02068B042E9
:1010100034D0404532D0484530D050452ED0584588
:101020002CD09B4A1832904228D0994A30329042B4
:1010300024D0974A4832904220D0964A90421DD000
:10104000944A1832904219D0924A3032904200E0CD
:10105000AFE113D08F4A483290420FD08D4A6032B0
:1010600090420BD08B4A7832904207D0894A903216
:10107000904203D0874AA83290427DD1406910F057
:10108000800F04D0A960606D40F00200606594F8A4
:101090005C00042100F01F00814039423ED02068EE
:1010A000B04232D0404530D048452ED050452CD0AB
:1010B00058452AD0764A1832904226D0744A3032A7
:1010C000904222D0724A483290421ED0714A9042D9
:1010D0001BD0704A1832904217D06E4A303290427C
:1010E00013D06C4A483290420FD06A4A6032904224
:1010F0000BD0684A7832904207D0664A90329042CC
:1011000003D0644AA83290424ED1006810F0020F1A
:1011100004D0A960606D40F00400606594F85C0044
:10112000102100F01F008140394258D02068B042A1
:1011300034D0404532D0484530D050452ED0584567
:101140002CD0534A1832904228D0514A3032904223
:1011500024D04F4A4832904220D04E4A90421DD06F
:101160004C4A1832904219D04A4A3032904215D037
:10117000484A4832904200E014E00FD0454A6032BD
:1011800090420BD0434A7832904207D0414A903285
:10119000904203D03F4AA832904207D1006800F045
:1011A000080006E0006872E70068B7E7006800F032
:1011B0000400A0B1A96020680168490304D5006853
:1011C000000308D5A16C07E00168C90503D40168D4
:1011D00021F008010160216C09B12046884794F88C
:1011E0005C00202100F01F008140394279D0206846
:1011F000B04232D0404530D048452ED050452CD05A
:1012000058452AD0224A1832904226D0204A3032FD
:10121000904222D01E4A483290421ED01D4A90422F
:101220001BD01C4A1832904217D01A4A30329042D2
:1012300013D0184A483290420FD0164A603290427A
:101240000BD0144A7832904207D0124A9032904222
:1012500003D0104AA832904203D1006800F0100079
:1012600002E0006800F00200B0B3A96094F8350015
:101270000428206801680FD049037ED50068000368
:101280002BD4616C2AE000001000024030000024E2
:10129000700002401004024021F016010160206835
:1012A000416921F080014161206C08B9A06C20B136
:1012B0002068016821F00801016094F85C303F214A
:1012C000012003F01F0300229940A96084F8350033
:1012D00084F83420216D65E003E0E16B09B120461C
:1012E0008847606D00287DD0606DC00759D02068A8
:1012F000042184F83510B0422BD0404529D0484510
:1013000027D0504525D0584523D09D49884220D02C
:101310009B49183188421CD099493031884218D0F5
:101320009849884215D097491831884211D095497B
:10133000303188420DD093494831884209D09149D3
:101340006031884205D08F497831884201D08D497B
:101350009031016821F00101016020680099019A33
:10136000491C0091914202D80168C907F6D1006872
:10137000C00710D003200FE0FFE70168C905ACD417
:1013800003680121002223F01003036084F8351064
:1013900084F83420A1E7012084F83500002084F887
:1013A0003400E16C00291DD002B02046BDE8F05F9A
:1013B0000847754988421DD073491431884219D0B5
:1013C00071492831884215D06F493C31884211D08B
:1013D0006D49503188420DD06B496431884209D043
:1013E000694900E084E07831884203D066498C3155
:1013F00088427DD194F85C800427016808F01F08BA
:1014000007FA08F717EA0C0F009746D04F0744D5A4
:1014100000980F04686003D5C8033CD4A16CC1E7F1
:10142000880638D42068B0422DD0554960398842AA
:1014300029D0484527D0504525D0584523D050497C
:10144000884220D04E49183188421CD04C49303156
:10145000884218D04B49884215D04A4918318842F1
:1014600011D04849303188420DD046494831884230
:1014700009D0704507D0904205D0984203D0414929
:10148000A831884203D1016821F0080102E0016817
:1014900021F004010160216C84E7022707FA08F7B4
:1014A00017EA0C0F00974ED08F074CD500980F0409
:1014B000686003D5C80344D4616C73E7880640D4E0
:1014C0002068B0422FD02E49603988422BD0484541
:1014D00029D0504527D0584525D02949884222D0C7
:1014E0002749183188421ED025493031884200E012
:1014F00044E018D02349884215D022491831884247
:1015000011D02049303188420DD01E4948318842DF
:1015100009D0704507D0904205D0984203D01949B0
:10152000A831884203D1016821F0140102E001686A
:1015300021F00A010160012184F83510002084F8AF
:101540003400E16B2EE7082202FA08F212EA0C0FCF
:1015500014D0090712D5016821F00E01016094F83A
:101560005C100120002201F01F0100FA01F1696006
:10157000606584F8350084F8342012E7BDE8FC9FEC
:101580008800024010040240085402582DE9F05F20
:10159000044600F05FFC002C07467DD0E34E02219C
:1015A00020684FF00308DFF888934FF00005DFF85C
:1015B00084A3B042DFF880B334D0DC4A18329042C2
:1015C00030D048452ED050452CD058452AD0DA4A44
:1015D0001832904226D0D84A3032904222D0D64A91
:1015E000483290421ED0D54A90421BD0D34A18327E
:1015F000904217D0D14A3032904213D0CF4A48326D
:1016000090420FD0CD4A603290420BD0CB4A783214
:10161000904207D0C94A9032904203D0C74AA832BC
:1016200090427DD184F83510B04284F834502ED0E9
:10163000BE49183188422AD0484528D0504526D086
:10164000584524D0BC491831884220D0BA4930319D
:1016500088421CD0B8494831884218D0B7498842DE
:1016600015D0B6491831884211D0B449303188427A
:101670000DD0B2494831884209D0B0496031884222
:1016800005D0AE497831884201D0AC49903101682B
:1016900021F00101016008E027E100BF00F0DAFB62
:1016A000C01B052801D920211CE120680068C00763
:1016B000F4D104F108002168D4E9053C8E4685C8C0
:1016C00009681043D4E907281F43636A38439C4FD5
:1016D00040EA0C001043394040EA0800042B40EA7D
:1016E000010003D1D4E90B1211430843954909685D
:1016F0006FF30F01B1F1005F0FD36168A1F129020F
:10170000052A08D9163A032A05D9083A012A02D926
:101710004F39032901D840F48010CEF8000000E0D2
:1017200023E02068676A4069042F20F0070047EA39
:1017300000070DD1D4E90A01074349B12046FEF75D
:1017400071FF28B140206065012184F83510CCE09C
:10175000206847612046FEF783FE94F85C203F2115
:1017600002F01F029140816054E0774A90421BD002
:10177000754B1433984217D0734B2833984213D0CB
:10178000714B3C3398420FD06F4B503398420BD083
:101790006D4B6433984207D06B4B7833984203D03B
:1017A000694B8C3398427DD184F8351084F83450DD
:1017B000664B0168A26801EA030E402A73D0802AB2
:1017C00072D00022D4E90378D4E9053142EAD70285
:1017D00042EAD8085C4AD4E9077C48EAD30848EAD8
:1017E000D10141EAD701524241EA1C11142341EAD6
:1017F0000E01016020681044B0FBF3F08000E0654A
:101800002046FEF72DFE94F85C20012102F01F0215
:10181000914041602068B04257D044491831884215
:1018200053D0484551D050454FD058454DD04249EE
:101830001831884249D040493031884245D03E492C
:101840004831884241D03D4988423ED03B49183119
:1018500088423AD039493031884236D03749483108
:10186000884232D03549603188422ED033497831B0
:1018700088422AD031499031884226D02F49A83158
:10188000884222D0304988421FD02F4914318842E3
:101890001BD02D492831884217D02B493C31884232
:1018A00013D002E01DE017E018E0274950318842CC
:1018B0000BD025496431884207D0234978318842CA
:1018C00003D021498C31884229D12046FEF722FEDF
:1018D000A06880280CD00CE0102273E74FF48042FF
:1018E00070E74021616584F835800120BDE8F09FF4
:1018F0006560216E20790860D4E919014160606853
:10190000401E072808D82046FEF752FEE06E05600C
:10191000D4E91C01416002E0E566256765670120A6
:10192000656584F835000020E0E700001000024003
:101930004000024058000240700002401004024083
:101940003F8010FE0010005C085402580F00FEFF9C
:101950002DE9F84F04008C464FF00000009014D0A1
:1019600094F83400012812D094F835500120002159
:1019700084F83400012D0CD0C00260650120009075
:1019800084F834100098BDE8F88F0120FBE70220AE
:10199000F9E78C4D0226206884F83560A8428A4D0C
:1019A00061658A4E8A4FDFF82C82DFF82C92DFF8CF
:1019B0002CA2DFF82CB226D0A84224D0B04222D0EC
:1019C000B84220D040451ED048451CD050451AD0C2
:1019D000584518D08349884215D082491831884229
:1019E00011D08049303188420DD07E49483188423B
:1019F00009D07C496031884205D07A4978318842E3
:101A000001D078499031016821F0010101606146FF
:101A10002046FEF731FE6B49206888422CD0A84250
:101A20002AD0B04228D0B84226D0404524D04845DC
:101A300022D0504520D058451ED06A4A90421BD033
:101A4000684A1832904217D0664A3032904213D01A
:101A5000644A483290420FD0624A603290420BD0C2
:101A6000604A7832904207D05E4A9032904203D06A
:101A70005C4AA83290420CD1026822F01E0242F069
:101A800016020260206C88B12068026842F00802E9
:101A90000BE0026822F00E0242F00A020260206CA3
:101AA00020B12068026842F0040202602068884287
:101AB0004BD0A84249D0B04247D0B84245D040456B
:101AC00043D0484541D050453FD058453DD0454A88
:101AD00090423AD0434A1832904236D0414A30328E
:101AE000904232D03F4A483290422ED03D4A603236
:101AF00090422AD03B4A7832904226D0394A9032DE
:101B0000904222D0374AA83290421ED0364A9042A4
:101B10001BD0354A1432904217D0334A28329042B3
:101B200013D0314A3C3290420FD02F4A503290426B
:101B30000BD02D4A6432904207D02B4A7832904223
:101B400003D0294A8C3290420DD1206E0268D20314
:101B500003D5026842F480720260E06E18B1026838
:101B600042F4807202602068884226D0A84224D0C5
:101B7000B04222D0B84220D040451ED048451CD0AB
:101B800050451AD0584518D01649884215D01549E5
:101B90001831884211D01349303188420DD0114993
:101BA0004831884209D00F496031884205D00D493B
:101BB0007831884201D00B499031016841F0010130
:101BC0000160DFE6100002402800024040000240B1
:101BD000580002407000024088000240A00002400D
:101BE000B8000240100402400854025870B5044680
:101BF00000F030F90546601C02D004480078044427
:101C000000F028F9401BA042FAD370BD2400002444
:101C10002DE9F84F03247D4D00234FF001094FF0CB
:101C2000B04B4FF00F0AE9E009FA03F73A4076D0DB
:101C30000E7906F00306012E01D0022E18D1D0F83D
:101C400008C04FEA430ECE6804FA0EF82CEA080CDE
:101C500006FA0EF646EA0C068660D0F804C00E7945
:101C60002CEA070CC6F300169E4046EA0C064660B6
:101C70000E79F643B6070BD0C6684FEA43088F6863
:101C800004FA08FC26EA0C0607FA08F73743C7608F
:101C90000E7906F00306022E12D1DE080F694FEA14
:101CA000437C00EB8606B646366A4FEADC6C0AFADD
:101CB0000CF807FA0CF726EA08063743CEF820702E
:101CC0000F7906684FEA430807F0030704FA08FC97
:101CD00007FA08F726EA0C06374307604E6816F441
:101CE000403F1CD04A4E376847F0020737603668DD
:101CF0009F0706F00206009623F0030606F1B046A1
:101D0000B6463F0FD6F80864DFF808810AFA07FCE8
:101D1000404526EA0C0603D14FF0000C41E06CE090
:101D2000DFF8F4C0604502D14FF0010C39E0DFF874
:101D3000ECC0604502D14FF0020C32E0DFF8E0C0A9
:101D4000604502D14FF0030C2BE0DFF8D8C06045AE
:101D500002D14FF0040C24E0DFF8CCC0604502D182
:101D60004FF0050C1DE0DFF8C4C0604502D14FF014
:101D7000060C16E0DFF8B8C0604502D14FF0070C42
:101D80000FE0DFF8B0C0604502D14FF0080C08E06A
:101D9000DFF8A4C0604502D14FF0090C01E04FF01C
:101DA0000A0C0CFA07FC4CEA060CCEF808C44F6883
:101DB000DBF80060FF0226EA020600D516435F4604
:101DC000CBF80060D1F804C0DBF804605FEA8C2C2B
:101DD00026EA020600D516437E606E684F6826EA42
:101DE0000206BF0300D516436E602E684F6826EAD0
:101DF0000206FF0300D516432E605B1C0A6832FA08
:101E000003F67FF411AFBDE8F88F000080000058A2
:101E1000F444025800000258000402580008025816
:101E2000000C025800100258001402580018025802
:101E3000001C025800200258002402580AB1816197
:101E400070470904FBE7000001480068000C704778
:101E50000010005C014880687047000024000024E6
:101E600030B590F84120202A24D190F84020012A52
:101E700020D0012380F84030242280F84120202304
:101E800000240268156825F00105156002681568D0
:101E900025F480551560026815680D4315600168CA
:101EA0000A6842F001020A6080F8413080F8404040
:101EB000002030BD022030BD30B590F84120202AEE
:101EC00022D190F84020012A1ED0012380F8403012
:101ED000242280F84120202400250268136823F082
:101EE000010313600268136823F4706343EA01215D
:101EF000116001680A6842F001020A6080F84140FE
:101F000080F84050002030BD022030BD70B5040084
:101F100004D094F84100002510B106E0012070BD06
:101F2000204684F8405000F0AFF9242084F84100A6
:101F30002068016821F001010160D4E9001020F05F
:101F4000706008612068816821F400418160E06868
:101F500021680128A06830D040F404408860E0681F
:101F60000228206841682BD021F40061416020687C
:101F70002021154A4368134343602068C26822F455
:101F80000042C26054F8106B0DCC104340EA0320AD
:101F9000F06054F81C3CD4E900021043186054F877
:101FA0001C0D026842F001020260656484F8411071
:101FB000256384F84250002070BD40F40040CDE716
:101FC00041F40061D2E70000008000022DE9FF4FDC
:101FD00083B0044690F841009A469346DDE91087A5
:101FE000DDF84890202874D15FEA080014D09FB132
:101FF00094F8400001286CD0012084F84000FFF7DD
:1020000029FF0122064619230090D103204602F041
:1020100031F9002871D103E04FF4007060646CE086
:102020000025C4F82480222184F84110402084F83F
:10203000420065646785534665635A4604992046A5
:10204000CDE9009602F09AF810B184F8405054E0BF
:10205000618DFF2734484FF08078FF294FF0007AD8
:1020600004D927853A464346009005E0618D5346E2
:102070002185009094F828202046049902F0E2F887
:1020800000224B4604212046009602F0F3F8A0BB44
:102090002068616A406A0870606A401C6062208D36
:1020A000401E81B22185608D401E6085608DD8B153
:1020B000D1B900224B4680212046009602F0DAF882
:1020C000D8B9608DFF2805D927853A464346009543
:1020D00006E026E0608D53462085009594F8282080
:1020E0002046049902F0AEF8608D0028C8D132462F
:1020F0004946204602F0FCF818B1012007B0BDE8BF
:10210000F08F21682020094AC86121684B6813407C
:102110004B6084F8410084F84250002084F840501D
:10212000ECE70220EAE700000024008000E800FE5F
:102130002DE9FF4F83B0044690F841009A4693463C
:10214000DDE91087DDF84890202871D15FEA0800AA
:1021500014D09FB194F84000012869D0012084F880
:102160004000FFF777FE0122064619230090D103B5
:10217000204602F07FF800286ED103E04FF4007093
:10218000606469E00025C4F82480212184F84110AE
:10219000402084F8420065646785534665635A466B
:1021A00004992046CDE9009602F01AF810B184F89F
:1021B000405051E0608DFF274FF08078FF284FF0AE
:1021C000007A04D927853A464346009505E0608D9C
:1021D00053462085009594F828202046049902F063
:1021E00031F832464946204602F0AEF8A0BB606A9C
:1021F000216800788862606A401C6062608D401EC1
:102200006085208D401E80B22085618DD9B1D0B906
:1022100000224B4680212046009602F02BF8D8B9C8
:10222000608DFF2805D927853A464346009506E08C
:1022300026E0608D53462085009594F8282020469E
:10224000049901F0FFFF608D0028CAD1324649464B
:10225000204602F04DF818B1012007B0BDE8F08F1C
:1022600020682021074AC161206843681340436009
:1022700084F8411084F84250002084F84050ECE784
:102280000220EAE700E800FE10B5B6B004461421CB
:1022900030A8FEF775F8C0216846FEF771F81949B5
:1022A000206888422BD10020219008210446CDE9E6
:1022B0000010684600F048F908B1FEF7EEFA12483F
:1022C000016841F02001016000680DF1C00C12218D
:1022D00000F02000359003200122042334938CE881
:1022E00017000A4830A9FFF793FC07480830016837
:1022F00041F480010160006800F48000359036B040
:1023000010BD000000580040E0440258001402587C
:1023100002488168027811448160704724000024DB
:10232000032010B500F0D4F800F012FF0F4A104956
:1023300014681368C4F3032203F00F038A5CC95CBA
:1023400002F01F0201F01F01D0400A4A20FA01F1F9
:102350001160094908600F2000F010F808B1012051
:1023600010BD00F079F8002010BD0000184402589C
:102370003A4C0008340000243000002470B50D4DA4
:1023800004462878A0B14FF47A71B1FBF0F00A4905
:102390000968B1FBF0F001F044FE48B9102C07D2F7
:1023A00000222146501E00F073F800206C6070BDC2
:1023B000012070BD2400002430000024154BF0B52E
:1023C000083B427813491A600B680A1F23F0010387
:1023D0000B6043681360057BC67A827A437B2D07C6
:1023E000847B45EA0665C77B90F809C0067A90F8B9
:1023F00000E045EAC24040EA834040EA444040EA07
:10240000074040EA0C2040EA460040EA0E0008601F
:10241000F0BD0000A0ED00E0BFF35F8F0448002195
:102420000368034A23F480330360703211607047FD
:1024300024ED00E0074A40F00100064970321060C8
:10244000086840F480300860BFF34F8FBFF36F8F90
:102450007047000024ED00E0054808B5016841F030
:1024600002010160006800F00200009008BD000059
:10247000F4440258002809DB410900F01F028900DA
:10248000012001F1E0219040C1F8000170470000F7
:102490000E4BF0B41B680D46C3F30223C3F10706CD
:1024A000042E00D90426191D072901D2002300E0BB
:1024B000DB1E012404FA06F19C40491E2940641EDB
:1024C000994014402143F0BC02F0EDBA0CED00E05D
:1024D000064900F0070210B54FF6FF040868044BE8
:1024E000204040EA02201843086010BD0CED00E0D7
:1024F0000000FA05134970B50A68D243520705D5A2
:10250000096801F00701814213D118E00A6822F03E
:10251000070202430A60FFF79DFC0A4D4FF47A76EA
:102520000446083D07E000BFFFF794FC001BB042E3
:1025300001D9012070BD2868C0438004F4D4002074
:1025400070BD00000C4802582DE9FE4F0546DFF82B
:10255000E48350F8081B0024F64FC943019005F1AD
:102560002800264608F12408009008011DD4A86E12
:1025700050B1B0F5801F0CD0B0F5001F0ED0B0F5F3
:10258000401F1ED001240FE0386840F4003038604E
:1025900017E00198022101F0B9FF03E00098022141
:1025A00002F044F804000CD026462888C043C00539
:1025B00023D4A86D05281ED2DFE800F00C11161BED
:1025C0001B00AA6ED8F8001021F440111143C8F87E
:1025D0000010EAE7386840F40030386009E00198FC
:1025E000002101F093FF03E00098002102F01EF8A3
:1025F000044674B100E0012426462888C0438005C3
:1026000028D4E86D80281ED00CDC90B140280ED173
:1026100014E0AA6DD8F8001021F007011143C8F8A2
:102620000010EAE7C02813D0B0F5807F10D0012455
:102630000FE0386840F40030386009E0019800216C
:1026400001F064FF03E00098002101F0EFFF044671
:102650009CB126462888DFF8DC92C04309F12C099A
:1026600040052CD4D5F8A800B0F5800F20D00DDCA3
:10267000A0B1B0F5001F0FD115E0EA6DD8F8001039
:1026800021F4E0711143C8F80010E3E7B0F5C00F82
:1026900013D0B0F5000F10D001240FE0386840F4DB
:1026A0000030386009E00198002101F02FFF03E0BD
:1026B0000098002101F0BAFF04467CB12646288824
:1026C000C04300052DD4D5F8AC00B0F1007F21D077
:1026D0000EDCA8B1B0F1807F10D116E0D5F8A820AB
:1026E000D9F8001021F460011143C9F80010E6E7A1
:1026F000B0F1407F13D0B0F1806F10D001240FE013
:10270000386840F40030386009E00198002101F099
:10271000FDFE03E00098002101F088FF044674B13B
:1027200026462868C04380011FD4E86CD8B1102821
:102730000FD0202812D0302815D0012414E0D5F86D
:10274000AC20D9F8001021F0E0611143C9F8001065
:10275000E7E7386840F40030386004E0019802216F
:1027600001F0D4FE044674B126462888C043C00454
:102770002BD4286EB0F5005F20D00DDCA0B1B0F5F1
:10278000805F0FD115E06B48EA6C2030016821F0C2
:10279000300111430160E8E7B0F5405F13D0B0F5B8
:1027A000804F10D001240FE0386840F400303860CA
:1027B00009E00198002101F0A9FE03E00098002142
:1027C00001F034FF04468CB126462888C0438004BB
:1027D00029D4686EB0F5403F23D010DC08B3B0F5C3
:1027E000803F14D0B0F5003F0FD115E02A6ED8F825
:1027F000001021F4E0411143C8F80010E5E7B0F5FE
:10280000802F0ED0B0F5A02F0BD001240AE0019844
:10281000012101F07BFE03E00098012101F006FF99
:10282000044694B126462888C04340042AD4D5F8EB
:10283000B000B0F1405F23D010DC08B3B0F1805F8E
:1028400014D0B0F1005F0FD115E06A6ED8F8001017
:1028500021F4E0211143C8F80010E4E7B0F1804F03
:102860000ED0B0F1A04F0BD001240AE00198012155
:1028700001F04CFE03E00098012101F0D7FE044670
:1028800074B126462888C04300041FD4286FD8B1ED
:10289000B0F1805F0ED0B0F1005F10D0012414E0E1
:1028A000D5F8B020D9F8001021F0E0411143C9F863
:1028B0000010E7E7386840F40030386004E0019821
:1028C000012101F023FE044674B126462868C04366
:1028D000C0011ED4A86CD0B101280ED0022811D09E
:1028E000032814D0012413E02A6FD8F8001021F037
:1028F00040511143C8F80010E8E7386840F4003050
:10290000386004E00198022101F000FE0446ACB1F9
:1029100026462868DFF81CB0C043ABF11C0B400210
:1029200052D40548016841F480710160FFF792FAC2
:10293000824611E02C44025800480258FA48AA6C1A
:10294000016821F0030111430160E2E7FFF782FA19
:10295000A0EB0A00642835D8F4480068C005F5D516
:102960008CBBDFF8C4A3B5F8B4100AF1240ADAF876
:10297000000001F4407100F44070884211D0DAF890
:102980000010DAF8002021F4407142F48032CAF8D5
:102990000020DAF8002022F48032CAF80020CAF8B9
:1029A0000010D5F8B400B0F5807F1AD1FFF752FAC5
:1029B000029012E0FFF74EFA0299411A41F2883074
:1029C00081420AD9032426462878DFF85CA3C04355
:1029D0000AF1080AC00721D03CE0DAF800008007BD
:1029E000E8D5D5F8B410C1F30120032858460DD01E
:1029F000016821F47C510160B5F8B420DAF80010C8
:102A0000C2F30B021143CAF80010DDE7C84A03689D
:102A100002EA111223F47C511143ECE7E86F182805
:102A200016D005DCA0B1082808D0102804D10AE08F
:102A300020280DD028280BD001240AE0019801217C
:102A400001F064FD03E00098012101F0EFFD044670
:102A500064B126462878C04380071ED4A86F062894
:102A600019D2DFE800F0160C11161616EA6FDAF824
:102A7000001021F038011143CAF80010EAE701986C
:102A8000012101F043FD03E00098012101F0CEFD9A
:102A900004467CB100E0012426462878C043400764
:102AA0001FD4D5F89400062819D2DFE800F0160CE0
:102AB00011161616AA6FDAF8001021F0070111435B
:102AC000CAF80010E9E70198012101F01FFD03E0B9
:102AD0000098012101F0AAFD0446A4B100E0012400
:102AE00026462878C04380062BD4D5F89000B0F154
:102AF000405F24D011DC10B3B0F1805F15D0B0F18D
:102B0000005F10D116E0D5F89420D9F8001021F01C
:102B100007011143C9F80010E3E7B0F1804F0ED070
:102B2000B0F1A04F0BD001240AE00198002101F080
:102B3000EDFC03E00098022101F078FD044694B119
:102B400026462878C04340062BD4D5F89C00B0F523
:102B5000406F24D011DC10B3B0F5806F15D0B0F504
:102B6000006F10D116E0D5F89020DAF8001021F0AF
:102B7000E0411143CAF80010E3E7B0F5805F0ED0E2
:102B8000B0F5A05F0BD001240AE00198002101F00C
:102B9000BDFC03E00098022101F048FD044694B119
:102BA00026462878C04300062BD4D5F8A000B0F5FF
:102BB000C04F24D011DC10B3B0F5005F15D0B0F5D4
:102BC000804F10D116E0D5F89C20D9F8001021F4E0
:102BD000E0511143C9F80010E3E7B0F5004F0ED003
:102BE000B0F5204F0BD001240AE00198002101F03C
:102BF0008DFC03E00098022101F018FD044654B159
:102C000026462878C04300071ED4D5F88400B0F5C6
:102C1000805F0AD00FE0D5F8A020D9F8001021F489
:102C200060411143C9F80010EBE70098022101F060
:102C3000FDFC00B10126D5F88420DAF8001021F45B
:102C400040511143CAF800102878C043C00613D47D
:102C5000D5F89800B0F5807F05D10098022101F0E9
:102C6000E5FC00B10126D5F89820D9F8001021F430
:102C700040711143C9F800102868C043000316D4FE
:102C8000D5F8A40038B1B0F5803F09D0B0F5003FC9
:102C90000BD001240AE00198002101F037FC03E089
:102CA0000098022101F0C2FC04468CB12646286837
:102CB000C043400322D4D5F88800B0F5801F11D05E
:102CC000B0F5001F13D0B0F5401F15D0012414E05B
:102CD000D5F8A420D9F8001021F440311143C9F8E7
:102CE0000010E4E7386840F40030386004E00098F1
:102CF000012101F09BFC04465CB126462868C043D4
:102D0000C00323D4286DA8B1B0F5803F17D00124AB
:102D10001BE0D5F88820DAF8001021F440111143A7
:102D2000CAF80010EAE700004C4402580048025874
:102D3000CFFFFF00386840F40030386004E00198AD
:102D4000022101F0E3FB0446E4B126462868C043B3
:102D5000800005D40098022101F068FC00B1012632
:102D60002868C04380031BD4D5F88000B0B1B0F50B
:102D7000807F0FD0B0F5007F10D0B0F5407F0DD030
:102D800001240CE05A482A6D016821F48031114376
:102D90000160DBE7386840F400303860ECB3264669
:102DA0002868C043C00207D46A6FD8F8001021F029
:102DB00000411143C8F800102868C043C00008D47F
:102DC000D5F8B820DBF8001021F480411143CBF88E
:102DD00000102868C043800207D4EA6ED8F80010BB
:102DE00021F080711143C8F800102868C0434000EA
:102DF0000CD4DBF8001021F40041CBF80010DBF814
:102E00000010D5F8BC201143CBF800102868C0434F
:102E100008D437486A6D016800E018E021F040519D
:102E2000114301602868C043000208D4D5F88C2003
:102E3000DAF8001021F440011143CAF80010287993
:102E40000024C04300F0010020430AD00FE0D5F871
:102E50008020DAF8001021F440711143CAF8001004
:102E60009EE70198002101F051FB00B10646287948
:102E7000C04300F00200204305D10198012101F078
:102E800045FB00B106462879C04300F0040020430A
:102E900005D10198022101F039FB00B106462879DD
:102EA000C04300F00800204305D10098002101F044
:102EB000BDFB00B106462879C04300F01000204356
:102EC00005D10098012101F0B1FB00B10646287937
:102ED000C04300F02000044304D10098022101F017
:102EE000A5FB00B916B10120BDE8FE8F0020FBE76D
:102EF0004C4402582DE9F05F04000F467ED0DFF805
:102F00003882D8F8000000F00F00B8420CD2D8F890
:102F1000001021F00F013943C8F80010D8F8000064
:102F200000F00F00B84269D12078844D40070AD5DF
:102F30002069296801F07001884204D9296821F0CC
:102F400070010143296020787C4E361D00070AD5A8
:102F50006069316801F07001884204D9316821F05C
:102F60007001014331602078C0060AD5A06931683C
:102F700001F4E061884204D9316821F4E061014341
:102F800031602078DFF8B4B180060BF1080B0CD566
:102F9000E1695846DBF8002002F07002914204D942
:102FA000026822F070020A430260207880070AD586
:102FB000E068296801F00F01884204D9296821F0EE
:102FC0000F01014329602078C0073ED05B49A26809
:102FD0002868183920F4706010432860606802285F
:102FE00018D0032819D00968012819D049070029E9
:102FF0004ADADFF848A1AAF1080A00E044E0DAF86A
:10300000002022F007020243CAF80020FEF722FF48
:10301000814612E009688903E9E709688901E6E762
:10302000C905E4E7FEF716FFA0EB090141F288307D
:10303000814202D90320BDE8F09F6168DAF8000000
:1030400000F03800B0EBC10FECD1207880070AD532
:10305000E068296801F00F01884204D2296821F054
:103060000F0101432960D8F80010404601F00F011C
:10307000B9420BD9016821F00F01394301600068A2
:1030800000F00F00B84201D00120D4E720784007BB
:103090000AD52069296801F07001884204D22968A4
:1030A00021F0700101432960207800070AD560698A
:1030B000316801F07001884204D2316821F070015A
:1030C000014331602078C0060AD5A069316801F457
:1030D000E061884204D2316821F4E061014331604B
:1030E000207880060CD5E1695846DBF8002002F014
:1030F0007002914204D2026822F070020A43026018
:1031000000F026F80E492A682B68C2F3032203F068
:103110000F038A5CC95C02F01F0201F01F01D0405E
:10312000084A20FA01F11160074908600748006861
:10313000BDE8F05FFFF722B90020005218440258A2
:103140003A4C0008340000243000002428000024F9
:10315000454970B545480968434B103B11F03802AA
:1031600008D00111082A03D0102A0BD0182A0BD03E
:10317000084670BD19688906FBD51968C1F3C101FD
:10318000C84070BD3A4870BD3749374D18310C1DE5
:1031900024350A68096826682D6802F0030406F0E1
:1031A0000102C1F30511C5F3CC0515FB02F200EED7
:1031B000102AB8EE400AE9B32F4ADFED2E0AB7EE27
:1031C000001A6CB1DFED2D1A012C01D0022C43D076
:1031D00002EE101A1068F8EE422A81EEA22A1EE0D2
:1031E0001C68A40611D51B6801EE901A1168C3F380
:1031F000C103F8EE612AD84001EE900AC1F308003D
:10320000F8EE611A81EEA22A0BE001EE901ADFEDD2
:103210001C2A00BFF8EE611A106882EEA12AC0F3E2
:10322000080001EE900AF8EE611A40EE201A31EE25
:10323000810A00E015E022EE000A1068C0F3462083
:10324000401C00EE900AF8EE600A80EE201ABCEEF8
:10325000C10A10EE100A70BD01EE901ADFED092AC6
:10326000D8E7002070BD0000104402580090D00341
:1032700040787D0100000039304402580024744A2F
:103280000024744C20BCBE4B2DE9F05F04007DD0BF
:10329000FF4F2078FE4D1837DFF8F493103DC0073C
:1032A00048D0D9F80000396800F03800102815D04F
:1032B000182803D101F0030002280FD06068B0F590
:1032C000803F12D010B1B0F5A02F18D0286820F49C
:1032D00080302860286820F4802009E02868800376
:1032E00028D560680028D2D024E0286840F48030D7
:1032F0002860606888B1FEF7ADFD064609E02868E1
:1033000040F480202860F0E7FEF7A4FD801B6428CD
:103310006FD828688003F7D50CE0FEF79BFD0646C2
:1033200005E000BFFEF796FD801B6428F0D82868F2
:103330008003F7D4207841F20308D54E0C3E800775
:1033400069D5D9F80000396810F038000ED0182877
:1033500001D188070AD0E06890B3296821F01901EB
:1033600001432960FEF776FD824631E02868400778
:1033700002D5E06800288AD0E168286820F01900AA
:1033800008432860FEF766FD824607E0DFE000BFE5
:10339000FEF760FDA0EB0A000228B9D828684007B4
:1033A000F6D500BFFEF750FD40451BD820694028E8
:1033B00012D0316821F47C3141EA003030602AE0DB
:1033C00018E000BFFEF746FDA0EB0A0002289FD8D8
:1033D00028684007F6D5E5E7306820F47C3040F4F3
:1033E0000030EBE7207C316821F0FE4141EA0060CB
:1033F000E4E70DE1286820F001002860FEF72AFDCF
:10340000824605E0FEF726FDA0EB0A0002288DD8D3
:1034100028684007F6D42078C0065DD5D9F80000AA
:10342000DFF86CB2396800F03800ABF1040B082803
:1034300010D0182803D101F0030001280AD0E06958
:103440000028286838D040F080002860FEF702FD90
:10345000824623E02868C00523D5E069802876D11C
:103460001FE0206A202821D0316821F0F84141EA8C
:103470008060306030E000BF94F82010DBF800205E
:1034800022F07C5242EA0161CBF8001024E000BF38
:10349000FEF7E0FCA0EB0A00022898D82868C005D7
:1034A000F6D5FEF7D1FC4045E6D8DAE7306820F0E3
:1034B000F84040F08040DCE720F080002860FEF714
:1034C000C9FC064605E000BFFEF7C4FC801B0228CD
:1034D0009DD82868C005F7D42078000729D56C4806
:1034E0006169643000298046016811D041F0010112
:1034F0000160FEF7AFFC064605E000BFFEF7AAFC40
:10350000801B0228C9D8D8F800008007F6D510E043
:1035100021F001010160FEF79DFC064605E000BFB9
:10352000FEF798FC801B022872D8D8F800008007AC
:10353000F6D42078800623D5A0690028286810D00A
:1035400040F480502860FEF785FC064605E036E131
:10355000FEF780FC801B02285AD828688004F7D523
:103560000EE020F480502860FEF774FC064604E06C
:10357000FEF770FC801B02284AD828688004F7D424
:10358000207840074FD5DFF80C81D8F8001041F4BF
:103590008071C8F80010FEF75DFC064605E000BF2C
:1035A000FEF758FC801B642832D8D8F80000C0050C
:1035B000F6D5374EA068603601280AD008B1052834
:1035C00013D0306820F001003060306820F0040033
:1035D00002E0306840F001003060A06841F2883AB3
:1035E00090B1FEF737FC80460AE0306840F00400F6
:1035F0003060EEE7FEF72EFCA0EB0801514507D83E
:1036000030688007F6D50EE0FEF724FC804607E020
:1036100084E000BFFEF71EFCA0EB080151457DD8F9
:1036200030688007F6D4606AB0B3DFF86480D9F8F8
:10363000001008F120084FF6F87B08F10409C1F3E7
:10364000C2010329A8F1040A69D00228286820F0E1
:103650008070286003D0FEF7FDFB044684E0FEF78F
:10366000F9FB064605E000BFFEF7F4FB801B0228CD
:1036700077D828688001F7D4E26A40F2F3313868DD
:1036800054F8283F884340EA02101843386004E0A9
:103690001044025800480258B5E0217B4346228975
:1036A0004FF4FE0C208A4FF0FE474902267D521E41
:1036B000401EA1F50071C2F308088AB2761E0CEA1A
:1036C000004042EA08020243504607EA06610A4304
:1036D0001A60DAF8002022F00102CAF80020D9F8B6
:1036E0000020266A22EA0B0242EAC602C9F800203C
:1036F000DAF80010A26921F00C011143CAF8001099
:103700000168E26921F0020111430160016841F49E
:1037100080310160016841F4003101E021E027E0DF
:103720000160016841F480210160016841F00101FC
:103730000160286840F080702860FEF78BFB04462B
:1037400005E000BFFEF786FB001B022809D82868A9
:103750008001F7D557E000BFFEF77CFB001B022875
:1037600002D90320BDE8F09F28688001F4D44AE024
:1037700039680128D8F8000021D0A26A01F00303BB
:1037800093421CD1E26AC1F305118A4217D1216B21
:10379000C0F30802491E8A4211D1616BC0F3462270
:1037A000491E91420BD1A16BC0F30642491E9142C2
:1037B00005D1E16BC0F30660491E814201D00120B2
:1037C000D0E7A16C4E46D9F80000C0F3CC0081428E
:1037D00019D0DAF80000554620F00100CAF80000C0
:1037E000FEF738FB4FEA0007FEF734FBB842FBD088
:1037F000A26C306820EA0B0040EAC2003060286802
:1038000040F0010028600020ACE700002DE9F843FB
:10381000044690F8800001284BD04FF0010884F84E
:103820008080072245F6C05184F8812064223F48F9
:1038300000260068B0FBF1F050430090206801685A
:10384000890523D5016921F00801016120680099EB
:10385000491E009130D001690907F8D4016841F48C
:103860008061016020680099491E00912BD0016899
:103870008905F8D4816941F400618161206800996B
:10388000491E009126D041690905F8D420684027D7
:1038900000258068000426D5A06F20B30565A06FC1
:1038A000FDF70CF8F8B1A06FFDF7FAFA202818D050
:1038B00019E00220BDE8F883D4F8841041F04001FB
:1038C000C4F88410CAE7D4F8841041F04001C4F869
:1038D0008410CFE7D4F8840040F04000C4F884009E
:1038E000D4E7C4F884702068806840040DD5E06F88
:1038F00058B10565E06FFCF7E1FF30B1E06FFDF70F
:10390000CFFA202801D1C4F88470204600F024FFAB
:10391000D4F88400400601D5012601E0C4F88450A3
:1039200084F88180304684F88050C3E7300000245A
:1039300010B500680549884207D105480122402199
:10394000FEF77CFA03490120087010BD00380040E2
:10395000000C0258000000242DE9F04704460068DE
:10396000002103694269876894F8816000F1300999
:103970005FEA025C03EA02050AD51A0708D58169E5
:1039800041F400618161204600F033FABDE8F08720
:1039900015F0600F08D1680706D5616F204688478B
:1039A000216F20468847012105F04100012805D1FB
:1039B000680703D4216F20468847012105F02200C3
:1039C000022806D1680704D4616F2046BDE8F0479D
:1039D00008470029DAD128074FF001085BD5206895
:1039E000816941F0080181612068816941F010011D
:1039F00081612068816941F4006181612068016909
:103A000021F0080101612068806810F4404F20D047
:103A100023E0E0680F2806D92068616E006B08601B
:103A2000606E001D0FE0072806D9B9F80000616E2E
:103A30000880606E801C06E02068616E90F830009F
:103A40000870606E401C6066B4F86A00401EA4F8FE
:103A50006A00B4F86A000028DBD1204600F0B6FE08
:103A600084F88180D4F8840018B12046FFF760FF05
:103A70008CE7052E07D0042E09D0032E86D12046D0
:103A800000F0B8FA82E7204600F0B6FA7EE720465A
:103A900000F0AEF97AE715F4587FE9D068060AD548
:103AA000D4F8840040F00400C4F8840020688169E0
:103AB00041F040018161A8050AD5D4F8840040F0A6
:103AC0000100C4F884002068816941F400718161BB
:103AD000E8050AD5D4F8840040F00800C4F8840052
:103AE0002068816941F480718161A8060AD5D4F803
:103AF000840040F08000C4F884002068816941F0AF
:103B000020018161D4F884000028B1D0206840F2FF
:103B10006B32C7F381310368032923F0010101608F
:103B20002068016921EA0201016102D084F88180E4
:103B30009BE72068104D816821F440418160E06F6F
:103B400050B10565E06FFDF769F828B1D4F884003D
:103B500040F04000C4F88400A06F002888D00565BC
:103B6000A06FFDF75BF800288CD0D4F8840040F0FB
:103B70004000C4F8840009E7894800082DE9F047AF
:103B8000040029D0594A4FF000092068584B594D7C
:103B90009042C4F8289006D0984204D0A84202D09F
:103BA000E1680F2918D8E1684FF0010AE76B083186
:103BB000C9080AEB57167143904205D0984203D0CA
:103BC000A84201D0082907D8904203D0984201D0DA
:103BD000A84204D1102902D90120BDE8F08794F849
:103BE000810020B9204684F8809000F085F80220FA
:103BF00084F881002068016821F0010101602068DB
:103C0000A1698268B1F1806F02F4F81110D1626885
:103C1000B2F5800F01D01AB10AE0A26B22B107E021
:103C2000A26BB2F1805F03D1026842F4805202605D
:103C30006068400209D5E068072806D32068236D34
:103C4000026822F480721A4303E02068026822F4BA
:103C500080720260A66AE069E26B25683043E3681F
:103C60000A4310431843A860D4E90D02D4E9058142
:103C7000636A25691843D4F820C00A4326681043B4
:103C80002843A56DD4E90172D4E9123140EA080055
:103C900040EA0C0038430843104318432843F060BF
:103CA000606868B92068816821F4C05141F40061FE
:103CB00081602068816821F4C06141F48061816085
:103CC0002068016D21F0010101656068400206D5A0
:103CD0002068626DC16821F000411143C160C4F8E1
:103CE000849084F881A0002077E700000030014034
:103CF00000380040003C00402DE9F041B6B00746D6
:103D0000142130A8FCF73CFBC0216846FCF738FBC7
:103D10003249386888425ED18114002018900446E8
:103D2000CDE900106846FEF70FFC08B1FCF7B5FDC1
:103D30002B48016841F480410160006800F4804034
:103D4000359027480838016841F4807101600068A7
:103D500030AD022100F4807035900F20052385E8F6
:103D6000130003221F48CDE9332330A9FDF750FF8C
:103D70001D4E28221D4940234FF48068304686E8B6
:103D80001E017461B461F46134627462FDF7FEFB7C
:103D900008B1FCF782FD144D272214497835BE671F
:103DA0001831B763284685E81600C5E903486C61F9
:103DB000AC61EC612C626C62FDF7E8FB08B1FCF7CA
:103DC0006CFD0022FD6724201146AF63FEF760FB07
:103DD0002420FEF74FFB36B0BDE8F08100380040EC
:103DE000E844025800200258340100241000024028
:103DF000704770472DE9F041044690F881001E4657
:103E0000012849D1002946D0002AFCD0002EFAD042
:103E100094F8800001283FD0012784F880700025A5
:103E2000052084F88100C4F88450E165A4F860603E
:103E3000A4F862606266A4F86860A4F86A60256706
:103E400065672068C16821F4C021C160206881686D
:103E500021F440418160E268B8030F2A07D9E16F7D
:103E60008969814215D1A16F8969814211D1072ADF
:103E70004FF4005313D9D4F87CC0DCF818109942E1
:103E800001D0814205D1A16F896999422CD081422C
:103E90002AD084F880507DE00220BDE8F081A16F37
:103EA0008A699A4205D1B4F86220521C5208A4F8DB
:103EB00062208969814205D1B4F86210C91C890861
:103EC000A4F86210E16F8A699A4205D1B4F86A20B9
:103ED000521C5208A4F86A208969814218D1B4F8AA
:103EE0006A00C01C800811E00F2A11D8814205D158
:103EF000B4F86210491C4908A4F86210DCF81810E4
:103F0000814205D1B4F86A00401C4008A4F86A0058
:103F1000E06F3649DFF8D0800164E16F3448C86350
:103F2000E16FC1F84C80E06F0565B4F86A30216834
:103F3000626EE06F3031FDF70BFD50B1D4F88400B4
:103F400084F8805040F01000C4F8840084F8817038
:103F500020E02068816841F480418160A06F0564A1
:103F6000A06FC563A06F0565A16FC1F84C80B4F860
:103F700062302268E16DA06F2032FDF7E9FC58B194
:103F800054F87C0FFCF79AFCA068257140F01000F3
:103F9000A0606771012080E7A06FC069B0F5807FE5
:103FA000206841686FF30F0100D031434160206801
:103FB000816841F4004181602068016941F45871D1
:103FC00001612068016841F0010101606068B0F59D
:103FD000800F04D12068016841F400710160002065
:103FE00084F8805059E70000A3480008CF48000833
:103FF000D94800087047000010B50068054988429C
:1040000007D1054801224021FDF718FF034901208F
:10401000087010BD00380040000C02580000002459
:104020007047401EB0F1807F10B501D3012010BD54
:104030004FF0E02460610F21601700F034FD002094
:10404000A0610721216110BDFEE701688A69D243A2
:10405000920701D400228A6200688169C943C907B6
:1040600003D0816941F00101816170472DE9F0477A
:10407000044600680026894617464FF0200835465A
:104080008169C90641D51021C1612FE0B9F1FF3F17
:104090002CD0FDF7DFFEC11B494502D8B9F1000F56
:1040A00024D12068426894F84210836902F4804267
:1040B000DB431B0415D4B2F5804F12D0202910D059
:1040C000416841F480414160FDF7C4FE074608E0C5
:1040D000FDF7C0FEC01B192803D9012645F02005B5
:1040E00004E020688069C0438006F1D420688069BC
:1040F000C043800602D5002EC8D003E016B921685F
:10410000C1F81C80012645F0040521688869C205B4
:1041100005D54FF48072CA6145F0010501264105BD
:104120000AD5216880054FF4806245F00805CA6110
:104130004FF0010602D40AE0800507D52068012669
:104140004FF4007145F00205C16100E08EB12046D8
:10415000FFF77BFF20680021074F43683B40436027
:10416000606C2843606484F8418084F8421084F8CD
:1041700040103046BDE8F08700E800FE2DE9F84326
:10418000174604461548DAB2DDE908981E46009045
:104190000023204600F056F842464946204600F0EB
:1041A000D3F8B8B9012EFDB208D02068390A81626F
:1041B00042464946204600F0C7F858B92068856253
:1041C000002240214B462046CDF8008000F052F8F6
:1041D000002800D00120BDE8F88300000020008006
:1041E0002DE9F8430446164817461E46DAB20090F9
:1041F000C3022046DDE9089800F024F8424649460B
:10420000204600F0A1F8B8B9012EFDB208D0206810
:10421000390A816242464946204600F095F858B96D
:1042200020688562002280214B462046CDF8008020
:1042300000F020F8002800D00120BDE8F88300003D
:104240000020008070B50068C1F3090141EA024115
:10425000074D049C19434FF480664268214306EAE7
:1042600054532B439A4321F000410A43426070BDEE
:10427000FF63FF032DE9F0411D4617460E46044635
:10428000DDF8188028E0424629462046FFF7EEFE7A
:1042900010B10120BDE8F081681C1DD0FDF7DAFDEA
:1042A000A0EB0800A84200D8B5B92068806936EABA
:1042B00000000FD00020B8420ED1626C002084F8BC
:1042C0004000202142F02002626484F8411084F80A
:1042D0004200DEE70120EEE72068806936EA000050
:1042E00004D00020B842CED00020D3E70120F9E767
:1042F00070B516460D4604461FE032462946204654
:10430000FFF7B4FE08B1012070BDFDF7A3FD801BCF
:10431000A84200D88DB920688069C04380060CD5BA
:10432000626C002084F84000202142F02002626488
:1043300084F8411084F84200E5E720688069C043B2
:104340008006DAD4002070BD70B516460D460446CE
:1043500021E0324629462046FFF788FE08B10120B9
:1043600070BD681C17D0FDF775FD801BA84200D8F2
:104370008DB920688069C04380070CD5626C00202D
:1043800084F84000202142F02002626484F8411049
:1043900084F84200E3E720688069C0438007D8D4EE
:1043A000002070BD0D4808B5016841F001010160B1
:1043B00000680022114600F0010000900B20FEF77B
:1043C00067F80B20FEF756F800220C201146FEF786
:1043D0005FF8BDE808400C20FEF74CB8D8440258FE
:1043E00010B586B014216846FBF7CAFF194801686A
:1043F00041F020010160016801F020010591016890
:1044000041F080010160016801F0800105910168BF
:1044100041F480710160016801F4807105910168C7
:1044200041F008010160006801220B4C402100F0BE
:10443000080005902046FDF701FD00214020009076
:1044400001222046CDE9012103916946FDF7E0FBF9
:1044500006B010BDE0440258000C02581348002179
:1044600010B5114C0123124A0460C0E90121C0E9D2
:10447000033141618161C1610162FDF747FD08B10E
:10448000FCF70BFA09480021FDF7EAFC08B1FCF73C
:1044900004FA06480021FDF70FFD002803D0BDE80F
:1044A0001040FCF7FAB910BD005800405800002435
:1044B000BB7C7000124800210722104B10B5C0E9E8
:1044C0000031C0E902120161E022416181610162B3
:1044D00041628162C1624163C0E90E1201644164BC
:1044E0008164C164016541658165FFF747FB002870
:1044F00003D0BDE81040FCF7D0B910BD0038004033
:10450000AC000024FEE7FEE7704700002DE9F0470D
:10451000454D044689464FF0000A2868C04380078D
:104520000AD0414E283E306820F080603060FDF7B0
:1045300091FC0746B04608E00120BDE8F08700BFC7
:10454000FDF788FCC01B022867D8D8F800000001DE
:10455000F6D4206829684FF4FE0721F47C313E022E
:1045600041EA00302860207AA389B4F804C04002F0
:104570002D4D2D495B1E227CACF1010C1035091D1F
:10458000A0F5007080B2521ECCF3080C07EA03437A
:1045900040EA0C00184306EA0262104328600868EB
:1045A000626920F0C000104308600A68A06922F028
:1045B000200202430A60281D0A6822F010020A60E5
:1045C00002684FF6F873E4699A4342EAC402026053
:1045D0000868B9F1000F40F010020A6011D00868B5
:1045E000B9F1010F11D040F400100860D8F80000B4
:1045F000444640F08060C8F80000FDF72BFC0546FB
:104600000DE0086840F40020EFE740F48010ECE78C
:10461000FDF720FC401B022801D903208DE720680C
:104620000001F5D5504688E7284402582DE9F047A7
:10463000454D044689464FF0000A2868C04380076C
:104640000AD0414E283E306820F080503060FDF79F
:1046500001FC0746B04608E00120BDE8F08700BF36
:10466000FDF7F8FBC01B022867D8D8F800008000CF
:10467000F6D4208829684FF4FE0721F07C713E02B1
:1046800041EA00502860207AA389B4F804C04002AF
:104690002D4D2D495B1E227CACF1010C1835091DF6
:1046A000A0F5007080B2521ECCF3080C07EA034359
:1046B00040EA0C00184306EA0262104328600868CA
:1046C000626920F44060104308600A68A06922F41F
:1046D000007202430A60281D0A6822F480720A6090
:1046E00002684FF6F873E4699A4342EAC402026032
:1046F0000868B9F1000F40F480720A6011D00868B0
:10470000B9F1010F11D040F080700860D8F80000B6
:10471000444640F08050C8F80000FDF79BFB05467A
:104720000DE0086840F48000EFE740F40000ECE79B
:10473000FDF790FB401B022801D903208DE720687C
:104740008000F5D5504688E7284402580148FFF715
:1047500003B90000AC00002410B50168002240F24B
:104760006F330C6824F001040C6001680C699C43F1
:104770000C6101688B6943F008038B6101688B69E8
:1047800043F010038B6101688B6823F440438B6016
:1047900001688B6943F040038B6101688B6943F0CA
:1047A00020038B6101688B6943F480738B6101681E
:1047B0008B6943F400738B6101688B6943F4006378
:1047C0008B61A0F86220A0F86A2010BD10B50268C5
:1047D00040F26F335169946944F0080494610268AF
:1047E000946944F0100494610268146824F0010490
:1047F0001460026814699C4314610268936823F48E
:104800004043936090F88120042A0CD08A060AD590
:10481000D0F8842042F08002C0F8842002689369B6
:1048200043F02003936190F88120032A0CD04A06BC
:104830000AD5D0F8842042F00402C0F8842002682F
:10484000936943F0400393618A050AD5D0F8842028
:1048500042F00102C0F884200268936943F40073B7
:104860009361C9050AD5D0F8841041F00801C0F859
:10487000841001688A6942F480728A610021A0F87C
:104880006210A0F86A1010BD10B5806B00210122E3
:10489000A0F86A10A0F8621080F88120FFF748F8AD
:1048A00010BD10B5846BFCF7FBFA02280ED0204631
:1048B000FFF78CFFD4F88410012041F01001C4F8F8
:1048C000841084F881002046FFF732F810BD10B53F
:1048D000806BFFF7A5FB10BD10B5806B90F88110C1
:1048E000072909D0816FC969B1F5807F05D00068BB
:1048F000016941F00801016110BDFFF77DFB10BDAA
:104900007047FDF705BD000030B59DB04C216846ED
:10491000FBF736FD202113A8FBF732FD0220FDF73F
:10492000E9FD20490A68204822F001020A6009686E
:10493000016821F4404141F4804101600168002494
:1049400001F440411B9101688904FCD540250220F7
:1049500000900121CDE9031504220B920C21CDE931
:1049600009040A230E90CDE90C30CDE90F01CDE901
:1049700011046846FEF788FC08B172B6FEE73F20D6
:10498000CDE9130415940121169413A8CDE9174518
:1049900019941A94FEF7AEFA002801D072B6FEE719
:1049A0001DB030BD2C040058184802583348F0B5EB
:1049B000334A016841F470010160106800F00F0093
:1049C000072804D2106820F00F00C01D10602D4988
:1049D00000202C4C10340B682B4D43F001030B606E
:1049E00020600B682B400B60136803F00F03072B4C
:1049F00004D9136823F00F03DB1D1360214C234AF5
:104A00001834234B261D371D20601E4C214D2834A1
:104A10003060261D3860371D23603B1D35601C1D2E
:104A20003A60251D2E1D1860331D226028603260FB
:104A300018600A68134B184C22F4802260330A6015
:104A4000186020686FF30F00B0F1005F03D21349C4
:104A50000120C1F808010B48D4300168C9040BD407
:104A6000026843F2D2010E4B42F480520260196098
:104A7000016821F480510160F0BD000088ED00E084
:104A800000200052004402587FEDF6EA8002010146
:104A9000000202020000FF010010005C00800051D3
:104AA00000400052FEE7090700284FEA116104DBCD
:104AB00000F1E02080F80014704700F00F0000F1D2
:104AC000E02080F8141D704788B0002404940594F9
:104AD00006940794FDF7A0FC01258DF81C501F20BB
:104AE0008DF8180087218DF819108DF81D5004A835
:104AF0008DF810508DF81A408DF81E408DF8114039
:104B000005948DF81B408DF81F40FDF757FC0420DD
:104B1000FDF790FCFDF704FCFFF7F6FEFFF760FCE5
:104B2000FFF740FCFFF7C6FCFFF798FC03A94FF026
:104B300064088DF80C4001238DE8220134486B2273
:104B4000D021FDF7F5FA334E012240213046FDF722
:104B500075F9314A202331493148FFF74BF90022DA
:104B600030464021FDF76AF9FDF774F92B4F0546F1
:104B7000DFF8A8907F1E387801280DD0FDF76AF97C
:104B8000401B6428F7D9012230464021FDF756F931
:104B90000120FDF72BF831E006223C70CDF80090A3
:104BA0000123CDE901281A483B22D021FDF70EFA56
:104BB00000214A460846135C401C1F281944C9B20C
:104BC000F9DB164889F81F10402120F01F00BFF3C1
:104BD0004F8F144A1060203020390029FADCBFF3CF
:104BE0004F8FBFF36F8F0E48FEF710FE0A4A202347
:104BF0000A490B48FFF7FEF80028BCD100223046D6
:104C00004021FDF71BF9FDF725F90546B3E7000044
:104C100058000024000C0258380000240100002431
:104C2000AC00002468EF00E04FF04070E1EE100AA5
:104C30007047000610160006101600000000010262
:104C40000304010203040607080900006C4C000875
:104C50000000002438000000D4020008A44C000822
:104C60003800002450080000F00200080011223330
:104C700044000000000000000000000000000000F0
:104C80000000000000000000000000000000000024
:104C90000100000010000000000000000090D003A0
:044CA0000090D003AD
:040000050800029954
:00000001FF
